:020000040800F2
:1028000070290020792A0008454D0008614300081E
:10281000414D0008493F0008996800080000000089
:10282000000000000000000000000000B34E00089F
:102830002143000800000000474D0008912A0008CD
:10284000932A0008932A0008932A0008932A000874
:10285000932A0008932A0008932A0008932A000864
:10286000932A0008932A0008932A0008932A000854
:10287000932A0008932A0008932A0008932A000844
:10288000932A000800000000932A0008932A0008F9
:10289000932A0008932A0008932A0008932A000824
:1028A000932A0008932A0008932A0008932A000814
:1028B000932A0008932A0008932A0008932A000804
:1028C000932A0008932A0008932A0008932A0008F4
:1028D000932A0008932A0008932A0008932A0008E4
:1028E000932A0008932A0008932A0008932A0008D4
:1028F000932A0008932A0008932A00080000000089
:1029000000000000932A000800000000932A00083D
:10291000932A000800000000932A0008D5520008FE
:10292000932A0008932A0008932A0008932A000893
:10293000932A00080000000000000000932A00080D
:10294000932A0008932A00080000000000000000FD
:102950000000000000000000000000000000000077
:10296000000000000000000000000000932A0008A2
:10297000932A000800000000000000000000000092
:1029800000000000932A0008000000000000000082
:102990000000000000000000000000000000000037
:1029A0000000000000000000932A0008932A00089D
:1029B000932A0008932A0008932A000800000000C8
:1029C00000000000932A0008000000000000000042
:1029D000932A0008932A000800F002F800F03CF85F
:1029E0000AA090E8000C82448344AAF10107DA456A
:1029F00001D100F031F8AFF2090EBAE80F0013F080
:102A0000010F18BFFB1A43F00103184738480000B4
:102A100058480000103A24BF78C878C1FAD8520745
:102A200024BF30C830C144BF04680C607047000048
:102A30000023002400250026103A28BF78C1FBD8C7
:102A4000520728BF30C148BF0B6070471FB504F064
:102A500058FB1FBD10B510BD00F047F91146FFF738
:102A6000F5FF04F009F900F065F903B4FFF7F2FF90
:102A700003BC00F06DF90000094880470948004791
:102A8000FEE7FEE7FEE7FEE7FEE7FEE7FEE7FEE71E
:102A9000FEE7FEE704480549054A064B704700007B
:102AA000C7510008D9290008702300207029002090
:102AB000702500207025002053EA020C00F0698088
:102AC0002DE9F04B4FF00006002B1FBFB3FA83F542
:102AD00003FA05F424FA05F65E4012BF1643B2FA73
:102AE00082F502FA05F4C5F120051EBF22FA05FCA5
:102AF00044EA0C04203556EA044C4FEA144418BF4B
:102B0000641C4FF000084FF00009904271EB030C79
:102B100039D3002919BFB1FA81F701FA07F6B0FAE3
:102B200080F700FA07F6C7F120071EBF20FA07FC5E
:102B300046EA0C062037B6FBF4FCA7EB0507103F6E
:102B400007F01F0BCBF120062CFA06F60CFA0BFB54
:102B500044BFB3460026202FA4BF5E464FF0000BB3
:102B60005BEA060C08BF4FF0010B19EB0B0948EBB1
:102B70000608ABFB027C06FB02CC0BFB03CCC01BA4
:102B800071EB0C01C1E70B46024641464846BDE8E1
:102B9000F08B13B5084318BF4FF0FF300146AFF379
:102BA0000080BDE81C407047032A40F2308010F0DE
:102BB000030C00F0158011F8013BBCF1020F6244D8
:102BC00098BF11F801CB00F8013B38BF11F8013B69
:102BD000A2F1040298BF00F801CB38BF00F8013B16
:102BE00011F0030300F04F80083AC0F0088051F85C
:102BF000043B083A51F804CBA0E80810F5E7121D91
:102C00005CBF51F8043B40F8043BAFF30080D207AF
:102C100024BF11F8013B11F801CB48BF11F8012B7B
:102C200024BF00F8013B00F801CB48BF00F8012B9E
:102C300070474FF0000200B513469446964620397F
:102C400022BFA0E80C50A0E80C50B1F12001BFF465
:102C5000F7AF090728BFA0E80C5048BF0CC05DF8CB
:102C600004EB890028BF40F8042B08BF704748BF19
:102C700020F8022B11F0804F18BF00F8012B70478D
:102C800070477047704710B5203AC0F00B80B1E82C
:102C90001850A0E81850B1E81850A0E81850203A91
:102CA000BFF4F5AF5FEA027C24BFB1E81850A0E89A
:102CB000185044BF18C918C0BDE810405FEA827CB4
:102CC00024BF51F8043B40F8043B08BF7047D207CB
:102CD00028BF31F8023B48BF11F8012B28BF20F86C
:102CE000023B48BF00F8012B7047754600F02CF8F6
:102CF000AE4605006946534620F00700854618B0E9
:102D000020B5FFF7C7FEBDE820404FF000064FF0AA
:102D100000074FF000084FF0000BAC46ACE8C009CC
:102D2000ACE8C009ACE8C009ACE8C00921F0070173
:102D30008D46704710B50446AFF300802046BDE8CD
:102D40001040FFF792BE00000048704720000020AE
:102D500001491820ABBEFEE72600020070474FF085
:102D60009040016841F440610160016841F44061B4
:102D70000160016841F440510160016841F4405133
:102D8000016040F20800C2F20000016840688862F9
:102D90002820C4F600004FF48061016043F2000077
:102DA000C4F20100016821F040010160016821F0D6
:102DB000400101603020C4F20200016821F00101ED
:102DC0000160416921F00101416140F2C800C2F295
:102DD00000000021C0E9001170472DE9F04F87B0D5
:102DE000002641F248000596C4F202000168E94657
:102DF00041F0040101600168302501F004010691F1
:102E00000699016843F2000841F001010160016880
:102E10004FF4806701F00101069106990168C4F240
:102E2000020541F0020101600168C4F2010801F0ED
:102E3000020106910699816941F48051816181699D
:102E400001F4805106910699416841F00101416009
:102E5000416801F0010106910699416841F00201C3
:102E60004160416801F0020106910699816941F4CF
:102E700080518161806900F480500690069840F28C
:102E80000800C2F200000168406888610120CDE9B5
:102E900001064FF0904049460097CDE9036601F0E6
:102EA000B3FB40F2180BC4F6000BCBF800702027E0
:102EB00002244FF0050A4FF0904049460097CDE9B3
:102EC0000146CDE90366CDF814A001F09DFB40203A
:102ED000CBF800708DE851004FF090404946CDE9A5
:102EE0000366CDF814A001F08FFB28680A2120F0BA
:102EF00001002860D5F8D8070B2361F30700C5F857
:102F0000D80729684BF6EF70CFF6FF7001402960B3
:102F1000296821F440512960296821F020012960A5
:102F2000296821F040012960296841F08001296069
:102F3000296821F440712960296821F440612960E1
:102F4000696921F00101696140F60C01C4F20201D6
:102F50000A6863F307020A60696908401030686113
:102F6000686940F2D80120F4405068616869C2F293
:102F7000000120F020006861686920F0400068616D
:102F8000686940F080006861686920F44070686199
:102F9000686920F440606861D8F8000020F04000C3
:102FA000C8F8000008F10C00A8600A7840F2C801D7
:102FB000C2F200013AB1022A07D0012A17D1013129
:102FC0004FF0030A07E0033105E040F2C8014FF07B
:102FD000080AC2F20001E96069684FF6FF72914386
:102FE00051446960A9696FF30F015144A961E86117
:102FF000D8F8040040F00200C8F80400D8F8040033
:1030000040F00100C8F80400D8F8000040F040008B
:10301000C8F80000286840F00100286007B0BDE84B
:10302000F08F40F20040C4F600000168022241F037
:10303000C0010160016841F0C0010160016841F414
:1030400040710160016841F440710160802181623A
:103050004FF62841CFF6FF71425043F60040C4F2CC
:103060000000016821F040010160016821F0400189
:10307000016040F20840C4F20200016821F0010141
:103080000160416921F00101416140F2D000C2F2CA
:1030900000000021C0E9001170472DE9F04387B01E
:1030A000002641F248000596C4F20200016840F291
:1030B000004441F0040101600168C4F6000401F01D
:1030C0000401069106990168E84641F0010101609A
:1030D0000168022701F0010106910699016841F09B
:1030E00002010160016801F002010691069901697F
:1030F00041F400410161016901F400410691069922
:10310000416841F001014160416801F0010106910F
:103110000699416841F002014160416801F00201F5
:1031200006910699016941F4004101610069414637
:1031300000F40040069006988020A0610120CDE9AF
:1031400001064FF090400097CDE9036601F05CFA6C
:103150004FF61840CFF6FF70275008254FF00609AC
:1031600020464146CDE90057CDE902660496CDF8E8
:10317000149001F049FA1020A561CDE9000720461E
:103180004146CDE90266CDE9046901F03DFA40F21D
:103190000840C4F2020001680E2221F00101016022
:1031A000D0F818140F2762F30701C0F8181402684A
:1031B0004BF6EF71CFF6FF710A400260026822F40D
:1031C00040520260026822F020020260026822F08F
:1031D00040020260026842F080020260026822F44B
:1031E00040720260026822F440620260426922F08A
:1031F0000102426140F62402C4F20202136867F33E
:1032000007031360426940F2D0031140103141615D
:103210004169C2F2000321F4405141614169033325
:1032200021F0200141614169052721F04001416100
:10323000416941F080014161416921F4407141617E
:10324000416921F44061416143F60041C4F200014B
:103250000A6822F040020A6001F10C028260C36039
:10326000436867F30F034360C261826967F30F022B
:1032700082614A6842F002024A604A6842F00102F2
:103280004A600A6842F040020A60016841F00101A8
:10329000016007B0BDE8F08370B54FF09045286835
:1032A000012161F38B2030262860C4F202063068C9
:1032B00043F2000420F0010030607069C4F20104A0
:1032C00020F001007061204601F063FB4FF45B7059
:1032D000206041F203706060B069052161F30F0066
:1032E000B061706861F30F0070607069022140F096
:1032F00001007061286861F38B202860306840F01D
:103300000100306070BDB0B53025C4F202052868F8
:1033100043F2000420F0010028606869C4F201044F
:1033200020F001006861204601F033FB40F26F306D
:10333000206041F20370606040F2D800C2F20000E9
:103340000078022808D0012808D12068062161F3FE
:10335000C5002060032002E0082000E00520A969E4
:103360004FF6FF7291430144A96169686FF30F0141
:1033700008446860686940F001006861286840F0AE
:1033800001002860B0BD70B540F20045C4F60005EC
:103390002868012161F3871040F208462860C4F2D2
:1033A0000206306843F6004420F001003060706986
:1033B000C4F2000420F001007061204601F0E9FA37
:1033C0004FF45B70206041F203706060B0690521CA
:1033D00061F30F00B061706861F30F007060706995
:1033E000022140F001007061286861F387102860B5
:1033F000306840F00100306070BDB0B540F2084563
:10340000C4F20205286843F6004420F00100286059
:103410006869C4F2000420F001006861204601F0F0
:10342000B8FA40F26F30206041F203706060A86922
:10343000052161F30F00A861686861F30F006860FF
:10344000686940F001006861286840F00100286068
:10345000B0BD40F2A400C2F2000090F82000704716
:1034600080B540F2A40EC2F2000E9EF817308446DA
:103470004FF0010003B180BD8EF818008EF81700E0
:1034800000208EF808C08EF80910CEF8102080BDFC
:1034900040F2A40CC2F2000C9CF81730002B4FF045
:1034A00001030BD18CF8183002238CF8173000235D
:1034B0008CF808008CF80910CCF8102018467047DA
:1034C00040F2A401C2F20001087E032802D0087E67
:1034D000022804D10020C875002008767047C87DF6
:1034E0000028F9D0087E04281CBF01207047F3E7AC
:1034F0002DE9F04F8FB040F20300C2F200000078D7
:10350000042800F2D182DFE810F005001E00A101BE
:10351000D202FF024FF6184040F20041CFF6FF7092
:10352000C4F600014FF480520A504FF62840CFF6FF
:10353000FF704FF400620A504020886120208862AA
:10354000FFF74BFCE8E240F200494FF61840C4F6A2
:103550000009CFF6FF704FF480514FF6284549F827
:103560000010CFF6FF754FF4006049F805004020C9
:10357000582644F20044C9F818002020C4F202067C
:10358000C4F20004C9F8280001F050FB4FF4806039
:1035900049F8050040F20800C2F2000001684068E6
:1035A0000025886140F20040C4F2000045620168D5
:1035B0000DF1040841F00101016040462021FFF7B0
:1035C00038FB41F24800C4F20200016C0DF1240AFC
:1035D00021F00C0101640168022741F0040101603F
:1035E00001684FF0070B01F0040109910999016886
:1035F00041F001010160016801F00101099109999F
:10360000016841F002010160016801F002010991C5
:103610000999016941F400310161016901F4003146
:1036200009910999416841F001014160416801F047
:10363000010109910999416841F002014160406826
:10364000514600F00200099009984FF09040CDE9F2
:103650000977CDE90B550D95CDF838B000F0D4FFC2
:103660004FF40040CDE909074FF090405146CDE9B5
:103670000B55CDE90D5B00F0C7FF0820CDE9090728
:1036800048465146CDE90B55CDE90D5B00F0BCFF36
:1036900030681A2120F001003060D6F8B8071B23EB
:1036A00061F30700C6F8B80731684BF6EF70CFF644
:1036B000FF7001403160316821F440513160316860
:1036C00021F020013160316821F040013160316822
:1036D00041F080013160316821F44071316031681E
:1036E00021F440613160716921F00101716140F69E
:1036F0001401C4F202010A6863F307020A607169E7
:103700000840103070617069414620F4405070618B
:10371000706920F020007061706920F040007061D5
:10372000706940F080007061706920F440707061D1
:10373000706920F4406070614CF2C060C0F22D00EE
:10374000CDE902050C20CDE9060520460195CDE91D
:103750000455089501F0D8F944F20840C4F200007D
:1037600050E8001F21F0604140E80012002AF7D124
:1037700050E8001F21F0606140E80012002AF7D1F4
:10378000A16841F48041A160A16821F40041A160D9
:10379000216821F078712160216821F4F8112160FD
:1037A000216821F000512160616821F4904161603D
:1037B000A16821F02A01A160216841F00101216086
:1037C000316841F001013160716941F001017161BD
:1037D000E1698902FCD5E1694902F9D58021C9F87E
:1037E00018102168224621F0010142F8241BD9F863
:1037F0000010022363F38711C9F800104FF09041C5
:103800000F6863F39F770F6041F6D061C2F2000149
:10381000B260F1607168042262F30F01716000BF51
:1038200050E8001F41F0400140E80012002AF7D1A3
:103830002068102161F359502060206861F3144022
:103840002060206840F00100206029E140F2004A39
:103850004FF61840C4F6000ACFF6FF704FF48051BF
:103860004AF800104FF62840CFF6FF704FF4006181
:103870004AF800104020582644F20044CAF81800C4
:103880002020C4F20206C4F20004CAF82800FFF7A0
:10389000A4FA01A82021FFF7CCF941F24800C4F2B4
:1038A000020041680DF1240B41F0010141604168C3
:1038B000022701F00101099109994168002541F0B1
:1038C0000201416041684FF0070801F002010991CF
:1038D0000999016941F400310161016901F4003184
:1038E00009910999016841F004010160016801F042
:1038F000040109910999016841F001010160006822
:10390000594600F00100099009984FF09040CDE928
:103910000977CDE90B550D95CDF8388000F074FE90
:103920004FF0100950465946CDE90997CDE90B757E
:10393000CDE90D5800F068FE0820CDE90907504692
:103940005946CDE90B55CDE90D5800F05DFE3068C4
:103950001A2120F001003060D6F8B8071B2361F36C
:103960000700C6F8B80731684BF6EF70CFF6FF7066
:1039700001403160316821F440513160316821F0FB
:1039800020013160316821F040013160316841F03F
:1039900080013160316821F440713160316821F477
:1039A00040613160716921F00101716140F61401DB
:1039B000C4F202010A6863F307020A6071690840F1
:1039C00010307061706901A920F440507061706915
:1039D00020F020007061706920F040007061706913
:1039E00040F080007061706920F44070706170690F
:1039F00020F4406070614FF4E120CDE902050C2015
:103A0000CDE9060520460195CDE90455089501F05C
:103A10007BF8A06840F48040A060A06820F40040DB
:103A2000A060206869F359502060206869F3144051
:103A30002060606820F490406060A06820F02A0058
:103A4000A060206840F00100206000BFE0698002B3
:103A5000FCD5E0694002F9D58020CAF8180004F1CD
:103A60002400B06041F67870C2F20000F060706827
:103A7000FC2161F30F00706004F12800F06142F254
:103A80007400C2F20000306244F20840C4F2000048
:103A900050E8001F41F0400140E80012002AF7D131
:103AA000306840F0010030600FB0BDE8F08F4FF695
:103AB000184040F20044CFF6FF70C4F600044FF403
:103AC00080514FF628452150CFF6FF754FF4006026
:103AD00060514020A0612020A06201F0A7F84FF4BF
:103AE0008060605140F20800C2F200000168406846
:103AF000886140F20040C4F2000000214162016888
:103B000041F00101016007E040F20040C4F600000E
:103B100040218161202181620FB0BDE8F04FFFF7A5
:103B2000BCBA000040F2A402C2F20002D17D072913
:103B300000F2A380DFE811F02901080031005800ED
:103B40006E00A300B9009C00107A0C2300F07F01E6
:103B500047F2342C83EA1113C0F6000C1CF8033032
:103B600000F00F0058401CF800003C23A3EB80003D
:103B700000F47F7040EA811040F4803040F0020091
:103B80001060022010750020506050810320D07515
:103B90004FF48030D0610121F7E0107A0C2300F05F
:103BA0007F0147F2342C83EA1113C0F6000C1CF895
:103BB000033000F00F0058401CF800003C23A3EB3A
:103BC000800000F47F7040EA811000F10110106065
:103BD000012100200323117550815060D375A2F894
:103BE00015004FF4803013E0D17A0131D172C9B29F
:103BF000C1F1120C536800FA0CF0184311295060FF
:103C00005FD81068D1690140D06918BF0121400810
:103C1000D061BAE0D17A5368C1F10D0C00FA0CF012
:103C200018430D2950605CD3506847F23423C0F329
:103C30000321C0F60003595CC0F303104840185C30
:103C40005168C0F10F0001F00F0188424CD150685B
:103C50001169937A0009C854507A917A0131CBB234
:103C60008342917280F07E8000205060D07292E793
:103C7000107B10B10138107386E000211FE0917DA8
:103C8000032900F27C80DFE801F002333D53517DCF
:103C90000123022993756ED001296ED000296ED1BF
:103CA00001210028517572D169E004201076507B03
:103CB000002101305073507B0E2866D15173D175AD
:103CC00063E05168107D430803F5803399420DD1BC
:103CD00000210523D172022808BF0423D375516047
:103CE00059E7481CD0724FE0032049E0012047E02B
:103CF000022100239175D1725360C8B31068C0F3DC
:103D0000C02142E0D17A5368C1F10D0C00FA0CF0E9
:103D100018435060481CD0721168C0B2C0F10D0346
:103D2000D9400D2801F0010104BF032090752CE05B
:103D30000021D37A9175C3F10D015368884018436F
:103D4000506050681168B0EB510F18D1507A917AD9
:103D50000131CBB283429172FFF41DAF0220507546
:103D6000107611E0032010760720D0750E2082E730
:103D700082F8201006E010B9F6E7012807D10220EA
:103D800082F820000620D07500210846704710698F
:103D9000917A47F2342C405CC0F6000C01091CF803
:103DA000011000F00F0359401CF801101E23A3EB73
:103DB000410101F4FF7141EA401010601068C0F346
:103DC0000031E2E740F20300C2F20000007804286C
:103DD00011D8DFE800F0051110030300FFF7D3BA94
:103DE00040F20000C2F20000017849B300780128D7
:103DF00008BFFFF7C8BA70475820C4F20200016834
:103E0000042221F001010160416862F30F01416069
:103E1000016841F00101016040F21000C2F20000AF
:103E20000078062888BF7047DFE800F0040C1218FD
:103E30001E242A0044F22840C4F20000812124E01C
:103E4000FFF72ABA44F22840C4F2000022211CE005
:103E500044F22840C4F20000432116E044F2284016
:103E6000C4F20000042110E044F22840C4F2000033
:103E700065210AE044F22840C4F20000C62104E0B3
:103E800044F22840C4F20000A721016070470000FE
:103E900080B540F20300C2F200000078042852D836
:103EA000DFE800F0030951050500FFF72CFABDE833
:103EB0008040FFF7A2BA5820C4F202000168042231
:103EC00021F001010160416862F30F014160016866
:103ED00041F00101016040F21000C2F200000078E0
:103EE000062888BF80BDDFE800F0040A10161C22F7
:103EF000280044F22840C4F20000B12122E044F23C
:103F00002840C4F2000012211CE044F22840C4F210
:103F10000000732116E044F22840C4F2000034216E
:103F200010E044F22840C4F2000055210AE044F2B7
:103F30002840C4F20000F62104E044F22840C4F214
:103F400000009721016080BDFEE710B5044601F036
:103F500013F840F20300C2F200000470017861B16E
:103F60000178012909D00178022906D001780329B6
:103F700003D00078042818BF10BDBDE81040FFF73B
:103F8000B7BA40F20401C2F20001087008780128B3
:103F900001D100F01BB80878002808BF00F016B85F
:103FA000704747F20001C4F200010A6842F48072CF
:103FB0000A6042F20052C4F20002136823EA0000D1
:103FC0001060086820F48070086070472DE9F04F99
:103FD00095B040F20400C2F200000078002800F022
:103FE0002E81012840F09981002641F28800CDE918
:103FF0000A66CDE90666CDE90466C4F202000168EE
:1040000002226C2762F31D71C4F202070160D7F827
:10401000E00F02AC40F40050C7F8E00FD7F8E00F13
:104020004FF6C07900F400500F900F98D7F8E00FCA
:10403000082540F00100C7F8E00FD7F8E00F4FF077
:10404000010A00F001000F900F984FF0030B4FF0A2
:1040500090402146C5F6FF79C5F20005CDF808A0CD
:10406000CDF80CB006964FF0904800F0CDFA40F233
:104070000040C4F600002146CDE902AB069600F0F0
:10408000C3FAD7F8A807052161F30700C7F8A80706
:10409000386844F210018843386038680CA920F46D
:1040A00040503860386840F020003860386820F0B0
:1040B00040003860386840F08000386038686AF343
:1040C0000920386038686AF38B2038604FF0A040D0
:1040D000CDE90C660E9600F05BFA4FF40050CDE986
:1040E00012064FF4805014900FA94FF0A040CDE974
:1040F0000F66119600F060FAD5F8B80043F6FF712C
:104100008843C5F8B800A86840F2034120F4803025
:10411000A860A86888430130A860A868272161F3D7
:104120008800A860A86808A920F420708030A860E2
:104130004FF44030CDE9080605F53E7000F021F956
:10414000286809F1805100EA0900286028680840C1
:1041500000F18050286040F21400C2F200000068B4
:1041600042F663518009C0F23E51A0FB01016FF09D
:10417000010000EA511000BF0190019810B10198B0
:104180000138F9E7A86A0F2161F38A10A86228694B
:104190004FF4807120F460302861D5F8A80020F435
:1041A0000040C5F8A80040F20800C2F20000C0F8C4
:1041B0000080416040F20301C2F200010978042945
:1041C00002D001684068886141F6D460C2F2000004
:1041D000F86005F13800B8607868012161F30F00DC
:1041E000786038684FF6C07140F001003860686848
:1041F000C3F6FF7140F0030068602868084000F1D2
:104200000040286028680028FCD404200F900F98F4
:1042100010B10F980138F9E7296809F10050014001
:1042200041F0010129604FF0A04100BF0A68D207A8
:10423000FCD02968084040F0040028606DE00820A8
:104240004FF6C071C5F20000C5F6FF71036801F1B9
:1042500000521340103303600368DB0707D0036884
:104260001A4042F0020202600268D207FCD10268E2
:1042700001F180531A4002600268114001604FF062
:10428000A04000F0A3F840F26C09C4F20209D9F88A
:10429000E00F40F2004420F40050C4F600040DF199
:1042A0003C08C9F8E00F0027012620464146149734
:1042B000CDE90F66CDE91177139700F0A5F940F22B
:1042C0000805C2F200052C606E602868696881628A
:1042D0004FF62840CFF6FF704FF480712150032035
:1042E0000F9110904FF090404146139700F08CF9D9
:1042F000D9F8000020F00100C9F8000041F6D460B0
:10430000C2F20000078040F20300C2F20000007811
:10431000042802D028686968816115B0BDE8F08F73
:10432000704740F20800C2F20000016840688862ED
:10433000704740F20800C2F20000016840688861DE
:10434000704740F22840C4F60000802101607047A9
:1043500040F21840C4F60000802101607047000060
:10436000FEE740F2A400C2F20000007E7047082081
:10437000FFF717FE012000F0B0FD00F034FF02F05F
:104380008DFA80B50822C5F200021368D2F8002128
:104390001A43D2071CBF012080BDD1E900C3826847
:1043A00043F2E00ECFF6C07E02EA0E0243B1D1E93D
:1043B00002E141EA0E01114341EA0C01194301E017
:1043C00042EA0C018160002080BD000081B0002124
:1043D00000918268D2074BD081684FF6C07C4907B4
:1043E000C7F6FF7C08D58168C90605D4816801EA53
:1043F0000C0141F0100181608168090708D58168CE
:10440000890605D4816801EA0C0141F02001816030
:104410004FF47861009100BF816883685B0943EACB
:104420001111C90707D0009901390091009900299D
:10443000F2D1012100E00021C3684FF6FF72C7F6F8
:10444000DF721A4002F50012C260826802EA0C02B2
:1044500042F0020282604FF4786200928268920712
:1044600006D5009A013A0092009A002AF6D101215D
:104470008268920601D0012187E0426840F2FF7312
:104480009A434260026840F6200C1A430260826838
:104490004FF6000322F0A04282608268CFF2FE1342
:1044A00042F000528260C268CEF2820C02F0040236
:1044B00002F10042C26002691A400261426948F298
:1044C00000036FF3DD0242618269CFF2000302F064
:1044D00078428261026A1A4042F0706242F47F02BE
:1044E0000262426A0CF1100342F47F0222F0FF02E2
:1044F0004262826A42F47F0222F0FF028262026B11
:104500001A400263426B40F2DF7302EA0C0242631C
:10451000826B02EA0C028263C26B9A43C263C26C72
:1045200044F20003C0F210431A40C264026E4FF21C
:104530000003C0F2FF031A400266426E1A40426650
:10454000826E1A408266C26E1A40C266D0F8A020FF
:1045500043F6FF736FF31202C0F8A020D0F8A42036
:104560006FF31202C0F8A420D0F8B0206FF312024B
:10457000C0F8B020D0F8B42022F07F12C0F8B420E8
:10458000D0F8C0209A43C0F8C020084601B0704758
:104590008268D2071CBF01207047C2684CF2180322
:1045A00022EA030CD1E90032896843EA0C031A437A
:1045B0001143C16000207047B0B58268D2071CBFAC
:1045C0000120B0BDD1E900C2C3684CF21C0ECFF689
:1045D000F07E0EEA030E32B101F1080538CD4969CB
:1045E00023432B4303E0D1E90334496923431943AF
:1045F00041EA0C0141EA0E01C160016B21F00F019B
:10460000114301630020B0BD2DE9F04F0C6894FA0E
:10461000A4F2B2FA82F234FA02F361D04FF0010848
:104620004FF0030B08FA02F314EA030C54D0D1F84C
:104630000490A9F10103022B1CD29CFAACF6B6FA45
:1046400086F77E00D0F808A00BFA06F3D1E902BE87
:104650002AEA030A0BFA06F545EA0A058560456869
:104660004FF0030BA5430EFB04F4DB4325434560E9
:1046700008E000BF9CFAACF3B3FA83F77E000BFAB4
:1046800006F3DB430D69C468B5401C402543B9F10E
:10469000020FC56019D14FEA1C2494FAA4F4D1F892
:1046A00014E0BCF5807F28BFB4FA84F74FF02404EF
:1046B00038BF202450F804C0BF000F25BD402CEAAD
:1046C00005050EFA07F72F430751D1E900470568A2
:1046D000B7402B403B430360013234FA02F3A1D1CF
:1046E0000020BDE8F08F44F6D351C1F26201A0FB77
:1046F00001014FF0FF3000EB91104EF21001CEF2AD
:1047000000014860002088600520086070470000B4
:1047100070B504460068C00733D10D4620684EF6D8
:10472000F311CEF6FF7105F1080608404ECE08439E
:10473000184330432060606820F4405010436060AC
:10474000A869A16821F440710843A0604FF440605B
:1047500000F02EF8B8B16A68AAB129880EA333F820
:1047600011100023B0FBF1F00026010E000210EB47
:10477000520041F10001FEF79FF96FF31F50E06016
:1047800002E0012606E001262888E16A21F00F01F7
:104790000843E062304670BD0100020004000600DC
:1047A00008000A000C0010002000400080000001FA
:1047B00010B541F20004C4F20204D4F88810084095
:1047C0004FEAB020032807D002280CD0012813D1CB
:1047D000BDE8104000F0F0BAD4F890004FF400416A
:1047E00001EA803010BD206842F200414005C0F26D
:1047F000F40101EAE07010BD00F0DEFAA16847F2B2
:104800001C12C1F30311C0F60002515CA26847F20A
:104810002C13C2F30222C0F600039A5C01F01F01C0
:10482000C84002F01F01C84010BD10B5C0281CBF11
:10483000002010BD41F20004C4F20204D4F8880044
:10484000C0F38110032807D002280CD0012813D10F
:10485000BDE8104000F0B0BAD4F890004FF4004129
:1048600001EA803010BD206842F200414005C0F2EC
:10487000F40101EAE07010BD00F09EFAA16847F271
:104880001C12C1F30311C0F60002515CA26847F28A
:104890002C13C2F30222C0F600039A5C01F01F0140
:1048A000C84002F01F01C84010BD10B530282CD000
:1048B0000C2833D003281CBF002010BD41F2000497
:1048C000C4F20204D4F888004FF4404161F39F0021
:1048D000B0F1031F34D00221C0F20301884236D068
:1048E0000121C0F20301884226D000F065FAA168D8
:1048F00047F21C12C1F30311C0F60002515CA2681A
:1049000001F01F01C2F3C22239E041F20004C4F2F7
:104910000204D4F88800C0F3011007E041F200045B
:10492000C4F20204D4F88800C0F38100032807D041
:1049300002280CD0012813D1BDE8104000F03CBA89
:10494000D4F890004FF4004101EA803010BD206897
:1049500042F200414005C0F2F40101EAE07010BDEE
:1049600000F02AFAA16847F21C12C1F30311C0F645
:104970000002515CA26801F01F01C2F3022247F25B
:104980002C13C0F600039A5CC84002F01F01C84017
:1049900010BD43F60001C4F2000188421AD043F66C
:1049A0000041C4F20001884220D043F20001C4F269
:1049B000010188421CBF0120704741F23800C4F257
:1049C0000200816841F480518160816821F4805146
:1049D000816017E041F23800C4F20200016841F43E
:1049E00080410160016821F480410AE041F2380011
:1049F000C4F20200016841F400410160016821F441
:104A0000004101600020704740F21401C2F2000131
:104A10000860704740F2FF7C02460068C4F2000C58
:104A2000624510DD40F60003C4F200039A4213D041
:104A300043F20043C4F201039A420DD042F6004310
:104A4000C4F2010306E0B2F1804F05D040F200430A
:104A5000C4F200039A4203D14B6820F0700018435F
:104A600043F2FF33C4F201039A4209DC624516DCCB
:104A7000B2F1804F28D040F20043C4F2000321E09D
:104A800044F2FF33C4F201039A4211DC43F20043C3
:104A9000C4F201039A4217D044F2000310E040F63A
:104AA0000003C4F200039A420ED042F6004307E02E
:104AB00044F60003C4F201039A4205D044F20043D5
:104AC000C4F201039A4203D1CB6820F4407018432A
:104AD00010608868D062A2F18040A0F596300B8803
:104AE0004FEAB0200728936207D8012303FA00F0A9
:104AF00010F0E50F1CBF08691063506940F0010118
:104B0000002051617047000070B504460068C0077E
:104B10001CBF012070BD0E46206846F6F311CEF68C
:104B2000FF710840D6E9021CD6E904320843F56952
:104B30001843104328432060606820F4405040EA46
:104B40000C006060B069A16821F440710843A06066
:104B500044F6FF30C4F2000084424FF001000DDC47
:104B600044F20041C4F200018C4215D044F6000129
:104B7000C4F200018C423AD130200EE044F60041EC
:104B8000C4F200018C420BD043F60001C4F20101D3
:104B90008C422CD1032000E00C20FFF786FE02E0BF
:104BA000C020FFF742FEC8B17168B9B132680B2A64
:104BB0001CD812A353F82220F369B0FBF2F0B3F52E
:104BC000004F0DD1400000EB5100B0FBF1F04FF66B
:104BD000F0710140C0F34200084406E0012006E005
:104BE00000EB5100B0FBF1F080B2E06000203188B2
:104BF000E26A22F00F021143E16270BD0100000081
:104C00000200000004000000060000000800000090
:104C10000A0000000C00000010000000200000004E
:104C20004000000080000000000100002DE9F0417C
:104C30008CB040F20044C4F20004E06D0DF11C0899
:104C400020F00F300130E06540461421FDF7F1FF00
:104C500041F24C00C4F20200C16801AE41F0020111
:104C6000C160C168022701F0020101910199016848
:104C7000002541F0010101600068314600F00100AB
:104C800001900198102001904FF090400297CDE9DB
:104C90000355CDE90557FFF7B7FC4020CDE90107E3
:104CA0004FF090403146CDE90355CDE90557FFF768
:104CB000ABFC4FF6FF70CDE9090520464146ADF843
:104CC0001C500895FFF7A6FE20684FF6F87120F0FB
:104CD00080002060A068CFF6FE7108400130A0601F
:104CE000A069012161F30100A061A06920F00C001E
:104CF000A061A06920F0F000A061206A20F00A0005
:104D00002062A06961F30920A061A0694FF68F714C
:104D100020F44060A061A069CFF6FF5120F47040FC
:104D2000A061206A20F0A0002062606808406060F6
:104D3000A06820F08000A0600CB0BDE8F081000009
:104D4000FEE70000FEE770474FF09040016841F435
:104D500040710160016841F440710160016841F4F3
:104D600040510160016841F44051016040F2080087
:104D7000C2F200000168406888622820C4F6000082
:104D80004FF48061016040F20040C4F2000001680D
:104D900021F001010160016821F00101016041F28F
:104DA0005800C4F20200016821F0020101600168AC
:104DB00021F002010160704741F20C01C4F20201CE
:104DC00051F8040C00F00C0242F200400C2AC0F230
:104DD000F40007D0082A18BF704741F20020C0F243
:104DE0007A0070470A68034602F00302032A04BFF0
:104DF00041F20023C0F27A03022A0A6808BF034680
:104E0000C2F306200A680968C2F30312584301324C
:104E1000B0FBF2F0C1F34161022202EB4101B0FBB1
:104E2000F1F0704741F6D460C2F20000008840F60D
:104E3000E4410009484340F20111C0F21001A0FB17
:104E40000112801A02EB500048F67951C00AC0F2F4
:104E50000101484344F6D351C1F26201A0FB0101B4
:104E6000880970475820C4F20200016821F001014E
:104E7000016000BF0168C907FCD141F67871C2F238
:104E80000001C1604168FC2262F30F01416044F2FD
:104E90000841C4F2000100BF51E8002F42F0400277
:104EA00041E80023002BF7D1016841F001010160C6
:104EB0007047704710B540F2D801C2F2000109787E
:104EC00001B110BD0446FFF74CFA0028F9D140F2B9
:104ED0000000C2F20000047010BD47F20001C4F2ED
:104EE00000010A6842F480720A6042F20052C4F281
:104EF0000002136818431060086820F4807008608E
:104F0000704710B540F2D804C2F200042070FFF7D9
:104F100028FA00B110BD2078002840F2C800C2F283
:104F2000000005D02178012905D1411C03200AE0A9
:104F3000C11C052007E020780228EBD140F2C8010F
:104F40000820C2F200013422C4F20202916011680A
:104F50004FF6FF7399430144116051696FF30F01DC
:104F60000844506110BD80B50120FFF71AF80820F1
:104F7000BDE88040FFF7B1BF10B540F200444FF6E6
:104F80001840C4F60004CFF6FF704FF48051215052
:104F90004FF4006121502020A0614020A06140F228
:104FA0000300C2F200000178002944D001780129F1
:104FB00047D1FFF7C9FE206840F0C000206020689C
:104FC00040F0C00020604FF09040016841F0404147
:104FD0000160016841F040410160016841F00C014D
:104FE0000160016841F00C0101608020A06244F280
:104FF0000040C4F20000016821F001010160016875
:1050000021F0010101605820C4F20200016821F082
:1050100001010160416921F0010141614FF6284021
:10502000CFF6FF700221215041F6D060C2F200009D
:105030000021016010BDFDF792FEBDE81040FDF7B4
:10504000F0BF0178022949D1FDF789FE4FF0904069
:10505000016841F00C010160016841F00C01016040
:10506000206840F0C0002060206840F0C000206050
:10507000206840F440702060206840F44070206058
:105080008020A06244F20040C4F20000016821F0D8
:1050900001010160016821F0010101605820C4F2A2
:1050A0000200016821F001010160416921F0010164
:1050B00041614FF62840CFF6FF700221215042F2A5
:1050C0007400C2F20000FC21FDF7B3FD41F67870D8
:1050D000C2F20000FC21FDF7ACFD10BD01780329F0
:1050E00002D1FFF731FEA8E70078042818BF10BDF1
:1050F000A3E7000010B582B042F20000C4F2020043
:105100000168042262F30301016000BF016801F03D
:105110000F010429FAD147F20001C4F200010A6824
:10512000012341F2000063F34A22C4F202000A6044
:10513000016841F48031016001688903FCD5C168D0
:1051400048F20C02CFF6FF12114042F20342114323
:10515000C160C16841F08071C160016841F0807137
:10516000016000BF01688901FCD58168082241F017
:1051700003018160816862F307118160816801F039
:105180000C010C29FAD155210191019911B1019914
:105190000139F9E7816844F2004421F0F0018160AF
:1051A0008168C0F6950421F4E0618160816821F492
:1051B000605181602046FFF796FA204602B0BDE8B4
:1051C0001040FFF721BC4EF60850CEF20000D0F898
:1051D000801041F47001C0F8801042F60001C0F662
:1051E00000010160704742F20040C4F20000C16A51
:1051F000042221F00101C1624EF28011CEF20001C1
:105200000A60BFF34F8FBFF36F8F016821F0010178
:1052100001600121C163C16821F01801C16047F23A
:105220000000C4F20000016821F48071016041F2C5
:105230005800C4F20200816B21F4004181630168CF
:1052400021F480610160704782B041F25800C4F2DD
:1052500002000168022241F080510160016801F002
:10526000805100910099016841F4806101600168FA
:1052700001F4806101910199816B41F400418163E6
:1052800047F20000C4F20000016841F4807101603F
:1052900042F20040C4F20000016821F00101016007
:1052A000C16862F3C401C160C16A41F00101C16219
:1052B000016841F0010101604EF20240CEF20000AF
:1052C000102101704EF20010CEF2000004210160A6
:1052D00002B07047F0B581B041F21040C4F2000056
:1052E0006FF00101016040F20300C2F2000000789B
:1052F000042800F2CE83DFE810F005007B00CC0329
:10530000B3001A0140F2D807C2F200073878182516
:105310000228C4F6000500F0CB81012800F0E681E8
:10532000002840F0118340F2C800C2F2000040683B
:1053300047F2341301BA40F29C00C2F2000001604F
:105340000168C0F600038A0F9A5CC1F38756724069
:105350009A5CC1F3873672409A5CC1F38711514061
:10536000595C026881F0FF0102F03F02B2EB910F3D
:1053700040F0648240F20101C2F2000100220A7092
:1053800040F28002C2F200020168136803F07F431A
:1053900043EA112111601168136863F3170101F1E9
:1053A0008071116040F28C02C2F200020168136841
:1053B00003F07F4343EA112111601168136863F31E
:1053C000170101F1807111600168C9B28909117179
:1053D000016801F03F015171006800F0C000C02871
:1053E00040F040824FF4006028604FF480503EE26D
:1053F0005C20C4F20200006818240004C4F6000413
:1054000000F016814020C4F800042020C4F81004E5
:1054100041F6D660C2F200000178013101700078D7
:10542000FF2812D140F21000C2F20000017842F2CF
:10543000934201314A43A1EB12435B0803EB124252
:105440009208A2EBC2021144017040F21900C2F2AC
:1054500000000078012840F02881FEF7B3FCD2E17B
:1054600040F2D000C2F20000416847F234170ABA95
:1054700040F2A001C2F200010A600A68C0F600070B
:10548000930FFB5CC2F387567340FB5CC2F3873615
:105490007340FB5CC2F387125A40BA5C0B6882F01F
:1054A000FF0203F03F031824B3EB920FC4F600048D
:1054B00040F0A48040F20202C2F200020023137006
:1054C00040F28403C2F200030A681F6807F07F47B6
:1054D00047EA12221A601A681F6867F3170202F17E
:1054E00080721A6040F29403C2F200030A681F68D7
:1054F00007F07F4747EA12221A601A681F6867F3AD
:10550000170202F180721A600A68D2B292091A7107
:105510000A6802F03F025A71096801F0C001C0290F
:1055200040F013812021C4F80014402111E140F221
:10553000D000C2F20000416847F234170ABA40F2C4
:10554000A001C2F200010A600A68C0F60007930FCA
:10555000FB5CC2F387567340FB5CC2F38736734033
:10556000FB5CC2F387125A40BA5C0B6882F0FF0200
:1055700003F03F03B3EB920F40F21802C4F60002AF
:1055800049D140F20203C2F2000300271F7040F22B
:105590008407C2F200070B683E6806F07F4646EAC1
:1055A00013233B603B683E6866F3170303F1807387
:1055B0003B6040F29407C2F200070B683E6806F0B9
:1055C0007F4646EA13233B603B683E6866F3170359
:1055D00003F180733B600B68DBB29B093B710B6886
:1055E00003F03F037B71096801F0C001C02940F05E
:1055F000C3802021C2F800144021C1E04021C4F83A
:1056000000142021C4F8101440F20201C2F200017B
:1056100001220A709FE04021C2F800142021C2F844
:10562000101440F20201C2F2000101220A70A9E046
:1056300041F6D065C2F20005286847F23412C0F383
:105640000161C0F60002515CC0F307435940515C50
:10565000C0F307235940515CC3B25940515C820EDC
:1056600081F0FF01B2EB910F40F0A28040F2020105
:10567000C2F2000100220A7040F28401C2F200016D
:105680000A68C0F3D21002F07F4210440860086834
:105690000A6862F3170000F1807008602020C4F8E7
:1056A00000044020C4F810048EE0FEF7F1FBAAE0ED
:1056B00040F2C800C2F20000D0E900016FF003061A
:1056C00002BAD30856FA83F3022BC0F0C480C2F3A7
:1056D000C702022A00F0CD80012A40F0D18009BA29
:1056E00000F04070490941EAC001CAE040F2C80038
:1056F000C2F20000006800BA00F44001B1F5800F6A
:1057000040F0028140F20101C2F2000100220A7061
:105710004FF4006129604FF4805140F2800229610A
:10572000C2F200024FF680711368C0F2FF0101EA75
:10573000800003F07F41084410601068116861F335
:10574000170000F180701060F1E04021C4F80014EF
:105750002021C4F8101440F20001C2F200010978BF
:10576000012950D10068C0F30060FEF7DBF9012881
:105770001BD1FDF708FE46E04021C2F800142021AD
:10578000C2F8101440F20001C2F2000109780129A8
:1057900040F07F810068C0F30060FEF7C3F9012884
:1057A00040F06E81FDF7EFFD73E1FDF726FE2AE084
:1057B0004020C4F800042020C4F8100440F2020085
:1057C000C2F200000121017040F21806C2F2000688
:1057D0003078FEF7A7F9012803D1FEF7F3FA01208C
:1057E00002E0FEF755FB002040F21901C2F2000171
:1057F000087028780021C0F30010307041F6D660A0
:10580000C2F20000017040F21040C4F200000168D2
:10581000C90705D14FF4805020604FF400600BE0C1
:10582000406940F28801C2F200010A8808804FF402
:10583000006020604FF4805020612AE14FF48050D6
:1058400028604FF40060286140F20100C2F20000BD
:105850000121017078E009BA00F07060C90941EADD
:1058600040010EE04FF4805028604FF40060286142
:105870006AE009BA00F0E060890941EA800100E0CD
:10588000002140F29C00C2F200000160016847F272
:1058900034138A0FC0F600039A5CC1F38756724036
:1058A0009A5CC1F3873672409A5CC1F3871151400C
:1058B000595C026881F0FF0102F03F02B2EB910FE8
:1058C00022D140F20101C2F2000100220A7040F22E
:1058D0008002C2F200020168136803F07F4343EACA
:1058E000112111601168136863F3170101F18071D0
:1058F0001160006800F0C000C02812D14FF40060B1
:1059000028604FF4805011E04FF4805028604FF42D
:105910000060286140F20100C2F200000121017024
:1059200005E04FF4805028604FF40060286141F694
:10593000C850C2F20000016821B100210160FDF7EA
:10594000E2FC01E00121016040F2D000C2F200005F
:10595000416847F234160ABA40F2A001C2F20001CF
:105960000A600A68C0F60006930FF35CC2F387541E
:105970006340F35CC2F387346340F35CC2F3871285
:105980005A40B25C0B6882F0FF0203F03F03B3EBB6
:10599000920F3BD140F20202C2F2000200231370C8
:1059A00040F28403C2F200030A681E6806F07F46D4
:1059B00046EA12221A601A681E6866F3170202F19C
:1059C00080721A6040F29403C2F200030A681E68F3
:1059D00006F07F4646EA12221A601A681E6866F3CD
:1059E000170202F180721A600A68D2B292091A7123
:1059F0000A6802F03F025A71096801F0C001C0292B
:105A000011D12021C5F80014402110E04021C5F833
:105A100000142021C5F8101440F20201C2F2000166
:105A200001220A7005E04021C5F800142021C5F8C4
:105A3000101440F20001C2F200010978012910D0CF
:105A4000C9B9387828BB40F2C800C2F2000000682B
:105A5000C0F30060FEF766F801281FD1FDF71CFCBB
:105A60000EE00068C0F30060FEF75CF801280AD180
:105A7000FDF789FC09E03878002808BFFDF743FCF2
:105A8000FDF7BBFC05E0FDF7B8FC387808B9FDF779
:105A90003AFC01B0BDE8F04000F044B8FDF733FC3B
:105AA000EEE7000041F20041C4F20001C86840F096
:105AB0000100C8600A68082042F001020A6042F250
:105AC0007011C4F20200C2F20001C16048F2240168
:105AD000C4F2000142F270228160C2F2000204317D
:105AE0000262C16141684FF4807262F30F0141604C
:105AF00048F20801C4F2000151E8002F42F04002D0
:105B000041E80023002BF7D151E8002F42F080023A
:105B100041E80023002BF7D1016841F00101016049
:105B2000704700002DE9F04F83B0FEF71AFC032800
:105B300007D141F6CD50C2F2000000F01BFEFDF788
:105B4000BFFC41F6CC57C2F200073878092800F2B2
:105B5000FA83DFE810F00A002A00F8035F00C001B2
:105B600025026700E1006001AC020C20C4F20200D3
:105B7000006841F6647180B2C0F58070C2F2000125
:105B8000086041F6D860C2F2000000680A689042DE
:105B900040F0A48241F66870C2F20000007800284C
:105BA00000F0D383042000F0CFBB41F6DC69C2F2E1
:105BB000000948468521FDF73CF841F67470C2F2B1
:105BC0000000007841F6707A41F6D8680028C2F2E9
:105BD000000AC2F2000800F09B82D8F80040DAF810
:105BE000000042F2701520440138C0B2C2F2000534
:105BF000285CDAF8001001390A0600F0DE82CAB229
:105C000000212346DEB2AE5D013A314403F10103C7
:105C1000F8D1D3E241F66C70C2F20000012141706C
:105C2000092091E341F2BC71C2F20001B1F8000415
:105C3000002800F0888340F28400C2F2000000686F
:105C400040F2880200900090C2F200021288000E1A
:105C5000ADF80820ADF8082091F80224824200F047
:105C6000728381F8020491F80404009A41F820201C
:105C700091F80404013081F8040441F6C430C2F202
:105C8000000090F80322BDF8083020F8123090F898
:105C90000322013280F8032291F8042491F803349E
:105CA000D21AD2B2282AC0F0508391F8032491F876
:105CB00004349A4225D041F6CD52C2F200020027A8
:105CC0000432022391F80364FDB251F826600437D0
:105CD000565190F80262FDB230F8166053FA87F719
:105CE000565391F80364013681F8036490F8026218
:105CF000013680F8026291F8036491F80454AE42D0
:105D0000E0D1B1F80024013AA1F80024B0F8002253
:105D1000013AA0F80022BCE141F2BC71C2F20001DC
:105D2000B1F80004002800F00E8340F28000C2F2B7
:105D30000000006840F2840200900290C2F200026B
:105D400012680092009291F80234120E93424FEAC8
:105D5000106308D141F2B430C2F2000090F802049E
:105D6000834200F0F08241F2B430C2F2000080F8C9
:105D7000023490F80434029F40F8237090F8043401
:105D8000013380F8043481F8022491F80424009B44
:105D900041F8223091F80424013281F8042491F86A
:105DA000042491F80334D21AD2B21E2AC0F0CD8254
:105DB00091F8032491F804349A4226D041F6CD524A
:105DC000C2F2000200270432042300BF90F80364EB
:105DD000FDB250F826600437565191F80364FDB2C5
:105DE00051F8266053FA87F7565190F8036401364C
:105DF00080F8036491F80364013681F8036491F834
:105E0000036491F80454AE42E0D1B0F80024013AA2
:105E1000A0F8002438E140F20000C2F2000001784E
:105E2000002900F07D810078012840F08E8241F247
:105E3000BC71C2F20001B1F80004002800F08382B6
:105E400040F28400C2F2000000680090009091F8D7
:105E50000224000E824200F0768281F8020491F85A
:105E60000404009A41F8202091F80404013081F8DC
:105E7000040491F8040491F80324801AC0B23C2869
:105E8000C0F0638291F8030491F80424904241F633
:105E9000CD50C2F2000015D00022042391F8037403
:105EA00050FA82F651F8277053FA82F2776091F82F
:105EB0000374013781F8037491F8037491F8046452
:105EC000B742EBD1B1F80024013AA1F80024B1F8AF
:105ED0000024120AE4E041F66878C2F2000898F85B
:105EE0000010002900F0318241F66979C2F2000900
:105EF00099F8002040F2DA00C2F20000862612FB78
:105F000006035643855D1879B3F802A0772800F39D
:105F10006F81132800F2D6835E1DDFE810F01400B5
:105F2000BE02D303D303C702D303D303D303D202E6
:105F3000DD02E802FF0202030503210329034203F5
:105F4000580360037D03FEF70CFA012800F0FD8181
:105F5000402D05D10AF01F000630412586F841008A
:105F6000504629463246FDF793FA41F66B740028F5
:105F7000C2F2000400F0E08320780130C1B20329AE
:105F80002070C0F0E281FDF764FA002800F0EB8396
:105F900041F66C70C2F20000032141700920CCE38D
:105FA00041F2BC71C2F20001B1F80004002800F017
:105FB000CA8140F28800C2F200000088ADF80000FB
:105FC000ADF8080040F28400C2F2000000680090C2
:105FD000009091F80234020E934200F0B48141F631
:105FE000C430C2F2000090F80332BDF8087020F807
:105FF000137090F80332013380F8033281F80224E1
:1060000091F80424009B41F8223091F804240132D5
:1060100081F8042491F8042491F80334D21AD2B2FE
:10602000282AC0F0928191F8032491F804349A420E
:1060300025D041F6CD52C2F20002002704320223DD
:1060400091F80364FDB251F826600437565190F878
:106050000262FDB230F8166053FA87F7565391F892
:106060000364013681F8036490F80262013680F817
:10607000026291F8036491F80454AE42E0D1B0F8A2
:106080000022013AA0F80022B1F800040138A1F87A
:106090000004B1F80004020A41F6CD50C2F200003B
:1060A0004270B1F80014817000F064FB4DE141F6DC
:1060B0006C74C2F2000460780138082800F2408154
:1060C000DFE810F009000900360190009000090097
:1060D0000900090009000220207034E142F2701228
:1060E000C2F200020968125C41F67473C2F2000346
:1060F0001A701A78081A511D41F67072C2F2000225
:1061000011601168C0B28842C0F01F8101201BE1FC
:1061100041F66C70D8F80040C2F200000621FDE0A4
:1061200041F2B431C2F20001B1F80004002800F0DD
:106130000A8140F28000C2F20000006800900090E6
:1061400091F80224000E824200F0FD8081F80204E2
:1061500091F80404009A41F8202091F804040130D9
:1061600081F8040491F8040491F80324801AC0B261
:106170003C28C0F0EA8091F8030491F8042490428E
:106180003FF482AF41F6CD520020C2F20002042358
:1061900091F8037452FA80F651F8277053FA80F0A0
:1061A000776091F80374013781F8037491F80374F0
:1061B00091F80464B742EBD166E700214942C9B2C5
:1061C00088420DD1DAF800002044B0F5807F53D822
:1061D000DAF8002041F6DC602919C2F2000058E02C
:1061E00003209DE001202070FDF733F9A070AAE0A4
:1061F000A0F178030B2B00F2AB80DFE813F00C006A
:10620000B400630263026302630263026302E50097
:1062100018013101B70241F6CD50C2F200007823D7
:10622000C370F023037041F6C4330AF10100C2F2D7
:1062300000030026A3F8000283F8036283F80262D9
:1062400041F2BC73C2F20003A3F80004501C4EF2EA
:106250008F324243520D02EBC202A0EB820083F860
:10626000046483F8036483F8026489F80000481E1C
:1062700088F80000052067E0C4F5807629194846B3
:106280003246FCF791FCDAF8001009EB06008A1B95
:106290002946FCF789FC41F66870C2F200000678D6
:1062A000232E36D841F66A73B9F80100C2F2000312
:1062B00093F800B040F2DA0C99F8031000BAC2F279
:1062C000000C862599F80020000C1BFB05C30BFB76
:1062D00005F558801971581D09F104010CF80520C5
:1062E000FCF762FC0BF101004EF28F314143490D86
:1062F00001EBC101A0EB810041F66A71C2F200011D
:10630000087041F66871701CC2F200010870042028
:1063100006E041F66C70C2F20000022141700920D3
:106320003870DAF800002044C0B2C8F800000CE071
:1063300001202070FDF78DF8A070FDF7C1F802E094
:1063400000BF00BF00BF0020387003B0BDE8F08F71
:10635000FE2840F0B581032D40F03B810320FE2153
:1063600000F016FC9CE141F6CD50C2F2000079230A
:10637000C370F023037041F6C4330AF10100C2F286
:1063800000030026A3F8000283F8036283F8026288
:1063900041F2BC73C2F20003A3F80004501C4EF299
:1063A0008F324243520D02EBC202A0EB820083F80F
:1063B000046483F8036483F8026489F80000481ECB
:1063C00088F800000620BFE741F6CD50C2F2000079
:1063D0008023C370F023037041F2B4330AF101004B
:1063E000C2F200030026A3F8000483F8046483F8D3
:1063F000036483F8026441F2BC73C2F20003A3F8A1
:106400000004501C4EF28F324243520D02EBC20286
:10641000A0EB820083F8046483F8036483F80264C9
:1064200089F80000481E88F8000007208CE741F634
:10643000CD50C2F200008123C370F023037040F2FC
:106440000000C2F200000378002B00F052810078B7
:10645000012840F0618141F2BC75C2F200054CE1B7
:1064600040F20300C2F20000037873B10378032BFB
:1064700003D00078042840F0E58040F20000C2F22A
:1064800000000078012840F0DD8028465146822235
:1064900003B0BDE8F04F00F02ABB022D80F09980D8
:1064A000A81910F8010C00F049FAF9E0022D80F06B
:1064B0009080A81910F8010C03B0BDE8F04F00F06F
:1064C00077BA40F20300C2F200000078042800F01E
:1064D000D080FDF726FFC8E040F20300C2F20000C2
:1064E0000078042800F0C580FDF723FFBDE0022DF1
:1064F0006FD240F20300C2F200000078042800F2DC
:10650000A180012303FA00F010F0190F00F09A8027
:10651000A81910F8010C00F051FBC1E0FDF711FFC4
:10652000BEE0FDF715FFBBE040F20300C2F2000041
:1065300003786BB10378032B03D00078042840F074
:10654000818040F20000C2F200000078012879D179
:1065500028465146324603B0BDE8F04F00F046BB36
:10656000022D36D2A81910F8010C00F0A9F997E015
:1065700041F6CD54C2F200040F20E0704FF0000A43
:10658000211D30462A462570A4F801A000F022F90A
:10659000204600F0EFF899F8000087F800A00130DD
:1065A00083E041F6CD50C2F200001023C3700023F7
:1065B000A0F8013040F200030570C2F200031E781B
:1065C000012E47D140F28401C2F2000148E0022DC1
:1065D00051D341F66C70C2F20000072377E041F618
:1065E000CD54C2F200041220E0702570002540F264
:1065F0000400A4F80150C2F200000078012809D17B
:10660000FEF710FC6060204600F0B4F899F8002016
:1066100098F800103D705DE041F6CD50C2F20000E8
:106620001321C1700021A0F8011040F20001057093
:10663000C2F200010A78012A23D140F29401C2F289
:10664000000124E041F66C70C2F20000092343709F
:106650003B703FE01B7863B940F28001C2F2000159
:1066600009680091416000F085F899F8002098F8D9
:10667000001000202DE0A81910F8010C00F044F9DA
:106680000EE0097861B940F28C01C2F20001D1E953
:1066900000126B46C3E900128260416000F06AF8A4
:1066A00099F8001000203870481C4EF28F31414399
:1066B000490D01EBC101A0EB810098F8001012E038
:1066C000FF2855D041F66C70C2F2000008234370D9
:1066D00009203870501C4EF28F324243520D02EBAB
:1066E000C202A0EB820089F80000481E88F8000072
:1066F0002BE641F2B435C2F2000505F2024005F284
:10670000034305F2044605F580650AF101042C8077
:10671000002535701D700570501C4EF28F324243BB
:10672000520D02EBC202A0EB820089F80000481E65
:1067300088F80000082007E6002099F8001038705B
:10674000481C4EF28F314143490D01EBC101A0EBD2
:10675000810098F8001089F80000481E88F80000B1
:1067600000202070F1E500203870F9E700F096F87D
:10677000FDF7FDFD70B51C26C4F202060146007847
:106780003268FC2822F0010228BFFC2032607268C7
:106790004FF6FF739A43024442F270250532041DFE
:1067A000C2F20005726028462246FCF7FDF9E8783F
:1067B00029461030E8700020224600BF11F8013B46
:1067C000013A1844FAD140422855306840F001009F
:1067D000306070BD2DE9F04140F218470646C4F61E
:1067E0000007202000243860402015468846C4F267
:1067F00002043861FEF736FBE06E20F00100E0662F
:10680000E06EC007FCD142F27400C2F200003146D3
:106810002A46FCF7C9F9BFF34F8FBFF35F8F206F94
:106820004FF6FF7188432844206744F20840C4F2C1
:10683000000000BF50E8001F41F0800140E8001256
:10684000002AF7D1E06E40F00100E0664BF6C1503F
:10685000CFF6F0702168890303D4002800F101000D
:10686000F8D14FF4003041F6787560604FF4802025
:10687000C2F20005606040462946FC22FCF794F90C
:106880002846FC21FCF7D5F9FEF7ECFA40203860E9
:1068900020203861BDE8F081FEE700004EF60C5084
:1068A000BFF34F8FCEF200000168042201F4E061D3
:1068B000C0F2FA5211430160BFF34F8F00BFFDE7F2
:1068C00002280BD0012814D0002840F2D800C2F2D0
:1068D00000000078A0B10020FEF713BB40F2D80002
:1068E000C2F200000078022808BF70470220FEF7BD
:1068F00008BB40F2D800C2F200000078012800D1A5
:1069000070470120FEF7FDBA01280BD050B940F2C4
:106910000400C2F200000078002808BF7047002081
:10692000FDF72FBB40F20400C2F2000000780128FE
:1069300000D170470120FDF724BB000004280DD8CA
:10694000DFE800F003162B200C0040F20300C2F237
:106950000000007840B30020FDF7F7BA40F20300D2
:10696000C2F20000007804281ED00420FDF7EDBA22
:1069700040F20300C2F200000078012814D0012088
:10698000FDF7E3BA40F20300C2F2000000780328EA
:1069900008BF70470320FDF7D8BA40F20300C2F2E7
:1069A00000000078022800D170470220FDF7CDBA20
:1069B000B0B582B00446FDF7D4FC012800F0958004
:1069C0000DF10702182001218DF80740FCF760FD4A
:1069D00098B341F66B74C2F2000420780130C1B262
:1069E00003292070C0F08180FCF733FD002875D0AA
:1069F00041F66C7041F66972C2F200000321C2F2E6
:106A00000002417041F6CC501378C2F20000092117
:106A10000170581C4EF28F314143490D01EBC10109
:106A2000A0EB810041F66871C2F200010B78107092
:106A3000581E08700020207057E041F66972C2F2BB
:106A4000000210784EF28F3101304143490D41F67A
:106A5000687E01EBC101C2F2000EA0EB81049EF83A
:106A6000001041F6CC5C481EC5B28EF8000041F61D
:106A70006B70C2F2000C0023C2F20000232D8CF8D0
:106A80000030147003701FD804F12300C3B23925FD
:106A90006B43DB0A43EAC303A0EB8300107040F2B0
:106AA000DA02C0B2C2F20002862310FB032558436B
:106AB00001231354402068800D20287105200078A0
:106AC0008EF80010687110E041F66C70C2F20000A0
:106AD0000221417009208CF8000006E041F6CC50FC
:106AE000C2F2000000210170217002B0B0BD70B58B
:106AF00016460D460446FDF734FC012847D041F602
:106B0000CD52C2F20002D67002F8044B280A02F8F5
:106B1000030C2846214602F8025CFCF7A1FC002881
:106B200041F66B70C2F2000013D001780131CAB295
:106B3000032A017038BF70BD41F66C71C2F20001CA
:106B400005224A7041F6CC51C2F2000109220A70B6
:106B50001BE041F66973C2F2000341F6CC511E7886
:106B6000C2F2000100220A70711C4EF28F324A43B9
:106B7000520D02EBC202A1EB820141F66872C2F231
:106B8000000216781970711E11700021017070BD1D
:106B900041F6CD52C2F20002D17041F66C71C2F2E0
:106BA0000001107000200B78B1F80110A2F801006C
:106BB00010461371A2F80510FFF7DCBD012809D0BB
:106BC000002840F20000C2F20000007868B1002006
:106BD000FEF770B940F20000C2F200000078012810
:106BE00008BF70470120FEF765B9704770B51446BD
:106BF0000E460546FDF7B5FB01283CD03046294638
:106C00002246FCF745FC002841F66B70C2F20000FA
:106C100013D001780131CAB2032A017038BF70BDA8
:106C200041F66C71C2F2000104224A7041F6CC5167
:106C3000C2F2000109220A701BE041F66973C2F238
:106C4000000341F6CC511E78C2F2000100220A7006
:106C5000711C4EF28F324A43520D02EBC202A1EB7D
:106C6000820141F66872C2F2000216781970711E34
:106C700011700021017070BD8EB041F24807C4F25E
:106C8000020762B6B8694EF60C5840F00100B861D0
:106C9000B869CEF2000800F0010007900798386943
:106CA0004FF6FF0140F0805038613869042200F04F
:106CB000805007900798D8F800000025084040F25F
:106CC0000031C0F2FA510843C8F80000D8F80000BB
:106CD00048F20004C0F3022080F00701042928BF15
:106CE00011464FF0FF32033802FA01F138BF28464F
:106CF000C94301FA00F0000188F8170047F20800C4
:106D0000C4F200000168C4F2000441F48041016053
:106D1000FEF7F0F90C95786840F2004B40F0200047
:106D200078607868C4F6000B00F0200001900198AC
:106D300078684FF4006140F001007860786807AE31
:106D400000F001000190019878684FF0010A40F0CE
:106D50000200786078684FF4006900F0020001904A
:106D600001984FF61840CFF6FF704BF800104FF423
:106D700080514BF800102020CBF818004020CBF8B1
:106D800018008020CBF828004FF4807007904FF057
:106D900090403146CDE908A5CDE90A55FDF734FC10
:106DA0004FF48060CDE9070A4FF090403146CDE9BD
:106DB00009550B95FDF728FC4FF090403146CDF872
:106DC0001C904FF40069CDE908A5CDE90A55FDF7FF
:106DD0001BFC4FF48050CDE9070A4FF0904031463C
:106DE000CDE909550B95FDF70FFC10200790022007
:106DF000CDE9080506200C9058463146CDE90A55E4
:106E0000FDF702FC2020CDE9070A58463146CDE9BE
:106E100009550B95FDF7F8FB4020CDE9070A5846C8
:106E20003146CDE909550B95FDF7EEFB8020CDE904
:106E3000070A4EF20B4A58464EF2001B3146CEF27C
:106E4000000ACDE909550B95CEF2000BFDF7DCFBEE
:106E5000386801AE40F0040038603868314600F010
:106E6000040007900798386840F0010038603868DF
:106E700000F0010007900798386840F00200386081
:106E8000386800F0020007900798D8F800008AF8E8
:106E90000050CBF80090D8F800008AF801504FF469
:106EA0008050CBF80000D8F800008AF802504FF468
:106EB0000050CBF80000D8F800008AF803504FF4D7
:106EC0008040CBF80000D8F800008AF804504FF456
:106ED0000040CBF80000D8F800008AF805504FF4C5
:106EE0008030CBF80000D8F800008AF82D504FF021
:106EF0008070CBF80400D8F800008AF82E504FF0CC
:106F00000070CBF8040038684FF0020840F0080029
:106F1000386038684FF00C0900F0080007900798B7
:106F2000386C20F440603864786940F00100786182
:106F3000786900F0010007900798786840F0010038
:106F40007860786800F001000790079804200190AD
:106F50004FF09040CDE90285CDE90455CDF8189069
:106F6000FDF752FB0820CDE901084FF09040314673
:106F7000CDE90355CDE90559FDF746FB0820C4F2DC
:106F80000200D0F8F817222262F30701C0F8F817C0
:106F900001684BF6EF72CFF6FF7211400160016895
:106FA000232621F440510160016841F02001016075
:106FB000016821F040010160016841F08001016039
:106FC000016821F440710160016821F440610160B1
:106FD00040F60401C4F202010B6866F307030B607C
:106FE0004169114010314161416921F440514161D1
:106FF000416921F020014161416921F04001416175
:10700000416941F080014161416921F44071416170
:10701000416921F44061416141F60030C0F2B7009E
:10702000CDE9080507A920460795CDE90A55CDE920
:107030000C95FDF76DFB48F20800C4F2000000BF9C
:1070400050E8001F21F0604140E80012002AF7D10B
:1070500050E8001F21F0606140E80012002AF7D1DB
:10706000206820F000502060206840F0010020607F
:10707000E0698002FCD5E0694002F9D507AC204602
:107080001421FBF7D6FD38694FF4000140F02000D1
:107090003861386941F2004500F020000190019804
:1070A0004EF60C50CEF20000006800208AF82C004A
:1070B000CBF80410ADF81C00089041F2BF20C4F2D8
:1070C0000005099028462146FDF7A4FC28684FF6E4
:1070D0008F7120F0800028606868CFF6FF5108406B
:1070E0006860A86820F08000A860FEF7ADF8FDF7A2
:1070F0003AFFFCF76BFFFCF7FBF9FEF7D3FC00BF90
:10710000FEE7F1EE100A4FF6FF71C0F2C03120EA3F
:10711000010040F04070E1EE100A704700000000EE
:107120000000000001020304060708090000000037
:1071300001020304000C1814303C2824606C78749D
:10714000505C4844C0CCD8D4F0FCE8E4A0ACB8B45F
:10715000909C88848C809498BCB0A4A8ECE0F4F84F
:10716000DCD0C4C84C4054587C7064682C2034383F
:107170001C10040814180C0024283C3074786C602F
:1071800044485C50D4D8CCC0E4E8FCF0B4B8ACA01F
:1071900084889C909894808CA8A4B0BCF8F4E0EC0F
:1071A000C8C4D0DC5854404C6864707C3834202CFF
:1071B0000804101C2824303C1814000C4844505C6F
:1071C0007874606CE8E4F0FCD8D4C0CC8884909CDF
:1071D000B8B4A0ACA4A8BCB094988C80C4C8DCD0CF
:1071E000F4F8ECE064687C7054584C4004081C10BF
:1071F00034382C203C3024280C0014185C504448AF
:107200006C607478FCF0E4E8CCC0D4D89C9084889E
:10721000ACA0B4B8B0BCA8A4808C9894D0DCC8C48E
:10722000E0ECF8F4707C6864404C5854101C08047E
:10723000202C3834000306050C0F0A090B080D0E2C
:10724000070401026872000800000020200000000E
:10725000142A00088872000820000020502900002D
:10726000302A0008000000000101010401000000B4
:107270000000004800010000010000000024F400AC
:08728000010100000000000004
:04000005080029D9ED
:00000001FF
