:020000040800F2
:1028000058290020792A0008BD4C0008D942000848
:10281000B94C0008C13E0008256700080000000010
:102820000000000000000000000000002B4E000827
:102830009942000800000000BF4C0008912A0008DF
:10284000932A0008932A0008932A0008932A000874
:10285000932A0008932A0008932A0008932A000864
:10286000932A0008932A0008932A0008932A000854
:10287000932A0008932A0008932A0008932A000844
:10288000932A000800000000932A0008932A0008F9
:10289000932A0008932A0008932A0008932A000824
:1028A000932A0008932A0008932A0008932A000814
:1028B000932A0008932A0008932A0008932A000804
:1028C000932A0008932A0008932A0008932A0008F4
:1028D000932A0008932A0008932A0008932A0008E4
:1028E000932A0008932A0008932A0008932A0008D4
:1028F000932A0008932A0008932A00080000000089
:1029000000000000932A000800000000932A00083D
:10291000932A000800000000932A00084152000892
:10292000932A0008932A0008932A0008932A000893
:10293000932A00080000000000000000932A00080D
:10294000932A0008932A00080000000000000000FD
:102950000000000000000000000000000000000077
:10296000000000000000000000000000932A0008A2
:10297000932A000800000000000000000000000092
:1029800000000000932A0008000000000000000082
:102990000000000000000000000000000000000037
:1029A0000000000000000000932A0008932A00089D
:1029B000932A0008932A0008932A000800000000C8
:1029C00000000000932A0008000000000000000042
:1029D000932A0008932A000800F002F800F03CF85F
:1029E0000AA090E8000C82448344AAF10107DA456A
:1029F00001D100F031F8AFF2090EBAE80F0013F080
:102A0000010F18BFFB1A43F0010318473C450000B3
:102A10005C450000103A24BF78C878C1FAD8520744
:102A200024BF30C830C144BF04680C607047000048
:102A30000023002400250026103A28BF78C1FBD8C7
:102A4000520728BF30C148BF0B6070471FB504F064
:102A5000DAF91FBD10B510BD00F047F91146FFF7B8
:102A6000F5FF03F08BFF00F065F903B4FFF7F2FF09
:102A700003BC00F06DF90000094880470948004791
:102A8000FEE7FEE7FEE7FEE7FEE7FEE7FEE7FEE71E
:102A9000FEE7FEE704480549054A064B704700007B
:102AA00033510008D9290008582300205829002054
:102AB000582500205825002053EA020C00F06980B8
:102AC0002DE9F04B4FF00006002B1FBFB3FA83F542
:102AD00003FA05F424FA05F65E4012BF1643B2FA73
:102AE00082F502FA05F4C5F120051EBF22FA05FCA5
:102AF00044EA0C04203556EA044C4FEA144418BF4B
:102B0000641C4FF000084FF00009904271EB030C79
:102B100039D3002919BFB1FA81F701FA07F6B0FAE3
:102B200080F700FA07F6C7F120071EBF20FA07FC5E
:102B300046EA0C062037B6FBF4FCA7EB0507103F6E
:102B400007F01F0BCBF120062CFA06F60CFA0BFB54
:102B500044BFB3460026202FA4BF5E464FF0000BB3
:102B60005BEA060C08BF4FF0010B19EB0B0948EBB1
:102B70000608ABFB027C06FB02CC0BFB03CCC01BA4
:102B800071EB0C01C1E70B46024641464846BDE8E1
:102B9000F08B13B5084318BF4FF0FF300146AFF379
:102BA0000080BDE81C407047032A40F2308010F0DE
:102BB000030C00F0158011F8013BBCF1020F6244D8
:102BC00098BF11F801CB00F8013B38BF11F8013B69
:102BD000A2F1040298BF00F801CB38BF00F8013B16
:102BE00011F0030300F04F80083AC0F0088051F85C
:102BF000043B083A51F804CBA0E80810F5E7121D91
:102C00005CBF51F8043B40F8043BAFF30080D207AF
:102C100024BF11F8013B11F801CB48BF11F8012B7B
:102C200024BF00F8013B00F801CB48BF00F8012B9E
:102C300070474FF0000200B513469446964620397F
:102C400022BFA0E80C50A0E80C50B1F12001BFF465
:102C5000F7AF090728BFA0E80C5048BF0CC05DF8CB
:102C600004EB890028BF40F8042B08BF704748BF19
:102C700020F8022B11F0804F18BF00F8012B70478D
:102C800070477047704710B5203AC0F00B80B1E82C
:102C90001850A0E81850B1E81850A0E81850203A91
:102CA000BFF4F5AF5FEA027C24BFB1E81850A0E89A
:102CB000185044BF18C918C0BDE810405FEA827CB4
:102CC00024BF51F8043B40F8043B08BF7047D207CB
:102CD00028BF31F8023B48BF11F8012B28BF20F86C
:102CE000023B48BF00F8012B7047754600F02CF8F6
:102CF000AE4605006946534620F00700854618B0E9
:102D000020B5FFF7C7FEBDE820404FF000064FF0AA
:102D100000074FF000084FF0000BAC46ACE8C009CC
:102D2000ACE8C009ACE8C009ACE8C00921F0070173
:102D30008D46704710B50446AFF300802046BDE8CD
:102D40001040FFF792BE00000048704720000020AE
:102D500001491820ABBEFEE72600020070474FF085
:102D60009040016841F440610160016841F44061B4
:102D70000160016841F440510160016841F4405133
:102D8000016040F20800C2F20000016840688862F9
:102D90002820C4F600004FF48061016043F2000077
:102DA000C4F20100016821F040010160016821F0D6
:102DB000400101603020C4F20200016821F00101ED
:102DC0000160416921F00101416140F2B800C2F2A5
:102DD00000000021C0E9001170472DE9F04F87B0D5
:102DE000002641F248000596C4F202000168E94657
:102DF00041F0040101600168302501F004010691F1
:102E00000699016843F2000841F001010160016880
:102E10004FF4806701F00101069106990168C4F240
:102E2000020541F0020101600168C4F2010801F0ED
:102E3000020106910699816941F48051816181699D
:102E400001F4805106910699416841F00101416009
:102E5000416801F0010106910699416841F00201C3
:102E60004160416801F0020106910699816941F4CF
:102E700080518161806900F480500690069840F28C
:102E80000800C2F200000168406888610120CDE9B5
:102E900001064FF0904049460097CDE9036601F0E6
:102EA0006FFB40F2180BC4F6000BCBF80070202724
:102EB00002244FF0050A4FF0904049460097CDE9B3
:102EC0000146CDE90366CDF814A001F059FB40207E
:102ED000CBF800708DE851004FF090404946CDE9A5
:102EE0000366CDF814A001F04BFB28680A2120F0FE
:102EF00001002860D5F8D8070B2361F30700C5F857
:102F0000D80729684BF6EF70CFF6FF7001402960B3
:102F1000296821F440512960296821F020012960A5
:102F2000296821F040012960296841F08001296069
:102F3000296821F440712960296821F440612960E1
:102F4000696921F00101696140F60C01C4F20201D6
:102F50000A6863F307020A60696908401030686113
:102F6000686940F2C80120F4405068616869C2F2A3
:102F7000000120F020006861686920F0400068616D
:102F8000686940F080006861686920F44070686199
:102F9000686920F440606861D8F8000020F04000C3
:102FA000C8F8000008F10C00A8600A7840F2B801E7
:102FB000C2F200013AB1022A07D0012A17D1013129
:102FC0004FF0030A07E0033105E040F2B8014FF08B
:102FD000080AC2F20001E96069684FF6FF72914386
:102FE00051446960A9696FF30F015144A961E86117
:102FF000D8F8040040F00200C8F80400D8F8040033
:1030000040F00100C8F80400D8F8000040F040008B
:10301000C8F80000286840F00100286007B0BDE84B
:10302000F08F40F20040C4F600000168022241F037
:10303000C0010160016841F0C0010160016841F414
:1030400040710160016841F440710160802181623A
:103050004FF62841CFF6FF71425043F60040C4F2CC
:103060000000016821F040010160016821F0400189
:10307000016040F20840C4F20200016821F0010141
:103080000160416921F00101416140F2C000C2F2DA
:1030900000000021C0E9001170472DE9F04387B01E
:1030A000002641F248000596C4F20200016840F291
:1030B000004441F0040101600168C4F6000401F01D
:1030C0000401069106990168E84641F0010101609A
:1030D0000168022701F0010106910699016841F09B
:1030E00002010160016801F002010691069901697F
:1030F00041F400410161016901F400410691069922
:10310000416841F001014160416801F0010106910F
:103110000699416841F002014160416801F00201F5
:1031200006910699016941F4004101610069414637
:1031300000F40040069006988020A0610120CDE9AF
:1031400001064FF090400097CDE9036601F018FAB0
:103150004FF61840CFF6FF70275008254FF00609AC
:1031600020464146CDE90057CDE902660496CDF8E8
:10317000149001F005FA1020A561CDE90007204662
:103180004146CDE90266CDE9046901F0F9F940F262
:103190000840C4F2020001680E2221F00101016022
:1031A000D0F818140F2762F30701C0F8181402684A
:1031B0004BF6EF71CFF6FF710A400260026822F40D
:1031C00040520260026822F020020260026822F08F
:1031D00040020260026842F080020260026822F44B
:1031E00040720260026822F440620260426922F08A
:1031F0000102426140F62402C4F20202136867F33E
:1032000007031360426940F2C0031140103141616D
:103210004169C2F2000321F4405141614169033325
:1032200021F0200141614169052721F04001416100
:10323000416941F080014161416921F4407141617E
:10324000416921F44061416143F60041C4F200014B
:103250000A6822F040020A6001F10C028260C36039
:10326000436867F30F034360C261826967F30F022B
:1032700082614A6842F002024A604A6842F00102F2
:103280004A600A6842F040020A60016841F00101A8
:10329000016007B0BDE8F08370B54FF09045286835
:1032A000012161F38B2030262860C4F202063068C9
:1032B00043F2000420F0010030607069C4F20104A0
:1032C00020F001007061204601F01FFB4FF45B709D
:1032D000206041F203706060B069052161F30F0066
:1032E000B061706861F30F0070607069022140F096
:1032F00001007061286861F38B202860306840F01D
:103300000100306070BDB0B53025C4F202052868F8
:1033100043F2000420F0010028606869C4F201044F
:1033200020F001006861204601F0EFFA40F26F30B2
:10333000206041F20370606040F2C800C2F20000F9
:103340000078022808D0012808D12068062161F3FE
:10335000C5002060032002E0082000E00520A969E4
:103360004FF6FF7291430144A96169686FF30F0141
:1033700008446860686940F001006861286840F0AE
:1033800001002860B0BD70B540F20045C4F60005EC
:103390002868012161F3871040F208462860C4F2D2
:1033A0000206306843F6004420F001003060706986
:1033B000C4F2000420F001007061204601F0A5FA7B
:1033C0004FF45B70206041F203706060B0690521CA
:1033D00061F30F00B061706861F30F007060706995
:1033E000022140F001007061286861F387102860B5
:1033F000306840F00100306070BDB0B540F2084563
:10340000C4F20205286843F6004420F00100286059
:103410006869C4F2000420F001006861204601F0F0
:1034200074FA40F26F30206041F203706060A86966
:10343000052161F30F00A861686861F30F006860FF
:10344000686940F001006861286840F00100286068
:10345000B0BD40F29400C2F2000090F82000704726
:1034600080B540F2940EC2F2000E9EF817308446EA
:103470004FF0010003B180BD8EF818008EF81700E0
:1034800000208EF808C08EF80910CEF8102080BDFC
:1034900040F2940CC2F2000C9CF81730002B4FF055
:1034A00001030BD18CF8183002238CF8173000235D
:1034B0008CF808008CF80910CCF8102018467047DA
:1034C00040F29401C2F20001087E032802D0087E77
:1034D000022804D10020C875002008767047C87DF6
:1034E0000028F9D0087E04281CBF01207047F3E7AC
:1034F0002DE9F04F8FB040F20300C2F200000078D7
:10350000042800F2D182DFE810F005001E00A101BE
:10351000D202FF024FF6184040F20041CFF6FF7092
:10352000C4F600014FF480520A504FF62840CFF6FF
:10353000FF704FF400620A504020886120208862AA
:10354000FFF74BFCE8E240F200494FF61840C4F6A2
:103550000009CFF6FF704FF480514FF6284549F827
:103560000010CFF6FF754FF4006049F805004020C9
:10357000582644F20044C9F818002020C4F202067C
:10358000C4F20004C9F8280001F00CFB4FF480607D
:1035900049F8050040F20800C2F2000001684068E6
:1035A0000025886140F20040C4F2000045620168D5
:1035B0000DF1040841F00101016040462021FFF7B0
:1035C00038FB41F24800C4F20200016C0DF1240AFC
:1035D00021F00C0101640168022741F0040101603F
:1035E00001684FF0070B01F0040109910999016886
:1035F00041F001010160016801F00101099109999F
:10360000016841F002010160016801F002010991C5
:103610000999016941F400310161016901F4003146
:1036200009910999416841F001014160416801F047
:10363000010109910999416841F002014160406826
:10364000514600F00200099009984FF09040CDE9F2
:103650000977CDE90B550D95CDF838B000F090FF06
:103660004FF40040CDE909074FF090405146CDE9B5
:103670000B55CDE90D5B00F083FF0820CDE909076C
:1036800048465146CDE90B55CDE90D5B00F078FF7A
:1036900030681A2120F001003060D6F8B8071B23EB
:1036A00061F30700C6F8B80731684BF6EF70CFF644
:1036B000FF7001403160316821F440513160316860
:1036C00021F020013160316821F040013160316822
:1036D00041F080013160316821F44071316031681E
:1036E00021F440613160716921F00101716140F69E
:1036F0001401C4F202010A6863F307020A607169E7
:103700000840103070617069414620F4405070618B
:10371000706920F020007061706920F040007061D5
:10372000706940F080007061706920F440707061D1
:10373000706920F4406070614CF2C060C0F22D00EE
:10374000CDE902050C20CDE9060520460195CDE91D
:103750000455089501F094F944F20840C4F20000C1
:1037600050E8001F21F0604140E80012002AF7D124
:1037700050E8001F21F0606140E80012002AF7D1F4
:10378000A16841F48041A160A16821F40041A160D9
:10379000216821F078712160216821F4F8112160FD
:1037A000216821F000512160616821F4904161603D
:1037B000A16821F02A01A160216841F00101216086
:1037C000316841F001013160716941F001017161BD
:1037D000E1698902FCD5E1694902F9D58021C9F87E
:1037E00018102168224621F0010142F8241BD9F863
:1037F0000010022363F38711C9F800104FF09041C5
:103800000F6863F39F770F6041F6C061C2F2000159
:10381000B260F1607168042262F30F01716000BF51
:1038200050E8001F41F0400140E80012002AF7D1A3
:103830002068102161F359502060206861F3144022
:103840002060206840F00100206029E140F2004A39
:103850004FF61840C4F6000ACFF6FF704FF48051BF
:103860004AF800104FF62840CFF6FF704FF4006181
:103870004AF800104020582644F20044CAF81800C4
:103880002020C4F20206C4F20004CAF82800FFF7A0
:10389000A4FA01A82021FFF7CCF941F24800C4F2B4
:1038A000020041680DF1240B41F0010141604168C3
:1038B000022701F00101099109994168002541F0B1
:1038C0000201416041684FF0070801F002010991CF
:1038D0000999016941F400310161016901F4003184
:1038E00009910999016841F004010160016801F042
:1038F000040109910999016841F001010160006822
:10390000594600F00100099009984FF09040CDE928
:103910000977CDE90B550D95CDF8388000F030FED4
:103920004FF0100950465946CDE90997CDE90B757E
:10393000CDE90D5800F024FE0820CDE909075046D6
:103940005946CDE90B55CDE90D5800F019FE306808
:103950001A2120F001003060D6F8B8071B2361F36C
:103960000700C6F8B80731684BF6EF70CFF6FF7066
:1039700001403160316821F440513160316821F0FB
:1039800020013160316821F040013160316841F03F
:1039900080013160316821F440713160316821F477
:1039A00040613160716921F00101716140F61401DB
:1039B000C4F202010A6863F307020A6071690840F1
:1039C00010307061706901A920F440507061706915
:1039D00020F020007061706920F040007061706913
:1039E00040F080007061706920F44070706170690F
:1039F00020F4406070614FF4E120CDE902050C2015
:103A0000CDE9060520460195CDE90455089501F05C
:103A100037F8A06840F48040A060A06820F400401F
:103A2000A060206869F359502060206869F3144051
:103A30002060606820F490406060A06820F02A0058
:103A4000A060206840F00100206000BFE0698002B3
:103A5000FCD5E0694002F9D58020CAF8180004F1CD
:103A60002400B06041F66470C2F20000F06070683B
:103A7000FC2161F30F00706004F12800F06142F254
:103A80006000C2F20000306244F20840C4F200005C
:103A900050E8001F41F0400140E80012002AF7D131
:103AA000306840F0010030600FB0BDE8F08F4FF695
:103AB000184040F20044CFF6FF70C4F600044FF403
:103AC00080514FF628452150CFF6FF754FF4006026
:103AD00060514020A0612020A06201F063F84FF403
:103AE0008060605140F20800C2F200000168406846
:103AF000886140F20040C4F2000000214162016888
:103B000041F00101016007E040F20040C4F600000E
:103B100040218161202181620FB0BDE8F04FFFF7A5
:103B2000BCBA000040F29402C2F20002D17D072923
:103B300000F2A380DFE811F02901080031005800ED
:103B40006E00A300B9009C00107A0C2300F07F01E6
:103B500046F6387C83EA1113C0F6000C1CF80330DB
:103B600000F00F0058401CF800003C23A3EB80003D
:103B700000F47F7040EA811040F4803040F0020091
:103B80001060022010750020506050810320D07515
:103B90004FF48030D0610121F7E0107A0C2300F05F
:103BA0007F0146F6387C83EA1113C0F6000C1CF83E
:103BB000033000F00F0058401CF800003C23A3EB3A
:103BC000800000F47F7040EA811000F10110106065
:103BD000012100200323117550815060D375A2F894
:103BE00015004FF4803013E0D17A0131D172C9B29F
:103BF000C1F1120C536800FA0CF0184311295060FF
:103C00005FD81068D1690140D06918BF0121400810
:103C1000D061BAE0D17A5368C1F10D0C00FA0CF012
:103C200018430D2950605CD3506846F63873C0F3D2
:103C30000321C0F60003595CC0F303104840185C30
:103C40005168C0F10F0001F00F0188424CD150685B
:103C50001169937A0009C854507A917A0131CBB234
:103C60008342917280F07E8000205060D07292E793
:103C7000107B10B10138107386E000211FE0917DA8
:103C8000032900F27C80DFE801F002333D53517DCF
:103C90000123022993756ED001296ED000296ED1BF
:103CA00001210028517572D169E004201076507B03
:103CB000002101305073507B0E2866D15173D175AD
:103CC00063E05168107D430803F5803399420DD1BC
:103CD00000210523D172022808BF0423D375516047
:103CE00059E7481CD0724FE0032049E0012047E02B
:103CF000022100239175D1725360C8B31068C0F3DC
:103D0000C02142E0D17A5368C1F10D0C00FA0CF0E9
:103D100018435060481CD0721168C0B2C0F10D0346
:103D2000D9400D2801F0010104BF032090752CE05B
:103D30000021D37A9175C3F10D015368884018436F
:103D4000506050681168B0EB510F18D1507A917AD9
:103D50000131CBB283429172FFF41DAF0220507546
:103D6000107611E0032010760720D0750E2082E730
:103D700082F8201006E010B9F6E7012807D10220EA
:103D800082F820000620D07500210846704710698F
:103D9000917A46F6387C405CC0F6000C01091CF8AC
:103DA000011000F00F0359401CF801101E23A3EB73
:103DB000410101F4FF7141EA401010601068C0F346
:103DC0000031E2E740F20300C2F20000007804286C
:103DD00011D8DFE800F0051110030300FFF7D3BA94
:103DE00040F20000C2F20000017829B300780128F7
:103DF00008BFFFF7C8BA70475820C4F20200016834
:103E0000042221F001010160416862F30F01416069
:103E1000016841F00101016040F21000C2F20000AF
:103E2000007801280AD0002818BF704744F22840C3
:103E3000C4F20000812106E0FFF72EBA44F22840C8
:103E4000C4F20000222101607047000080B540F2FA
:103E50000300C2F200000078042830D8DFE800F048
:103E600003092F050500FFF74EFABDE88040FFF774
:103E7000C4BA5820C4F202000168042221F00101F2
:103E80000160416862F30F014160016841F0010186
:103E9000016040F21000C2F200000078012808D052
:103EA000002818BF80BD44F22840C4F20000B121B0
:103EB00004E044F22840C4F200001221016080BDF9
:103EC000FEE710B5044601F013F840F20300C2F219
:103ED00000000470017861B10178012909D00178EE
:103EE000022906D00178032903D00078042818BFDE
:103EF00010BDBDE81040FFF7FBBA40F20401C2F26A
:103F0000000108700878012801D100F01BB808787A
:103F1000002808BF00F016B8704747F20001C4F24D
:103F200000010A6842F480720A6042F20052C4F250
:103F30000002136823EA00001060086820F4807013
:103F4000086070472DE9F04F95B040F20400C2F2CE
:103F500000000078002800F02E81012840F09981AF
:103F6000002641F28800CDE90A66CDE90666CDE972
:103F70000466C4F20200016802226C2762F31D711C
:103F8000C4F202070160D7F8E00F02AC40F4005021
:103F9000C7F8E00FD7F8E00F4FF6C07900F40050F3
:103FA0000F900F98D7F8E00F082540F00100C7F8F0
:103FB000E00FD7F8E00F4FF0010A00F001000F907A
:103FC0000F984FF0030B4FF090402146C5F6FF7954
:103FD000C5F20005CDF808A0CDF80CB006964FF05C
:103FE000904800F0CDFA40F20040C4F600002146AF
:103FF000CDE902AB069600F0C3FAD7F8A807052171
:1040000061F30700C7F8A807386844F21001884335
:10401000386038680CA920F440503860386840F0A7
:1040200020003860386820F040003860386840F080
:104030008000386038686AF30920386038686AF3AD
:104040008B2038604FF0A040CDE90C660E9600F052
:104050005BFA4FF40050CDE912064FF480501490F3
:104060000FA94FF0A040CDE90F66119600F060FA5D
:10407000D5F8B80043F6FF718843C5F8B800A868C2
:1040800040F2034120F48030A860A86888430130E2
:10409000A860A868272161F38800A860A86808A91B
:1040A00020F420708030A8604FF44030CDE908063D
:1040B00005F53E7000F021F9286809F1805100EA09
:1040C000090028602868084000F18050286040F20C
:1040D0001400C2F20000006842F663518009C0F289
:1040E0003E51A0FB01016FF0010000EA511000BF3A
:1040F0000190019810B101980138F9E7A86A0F21E1
:1041000061F38A10A86228694FF4807120F460304E
:104110002861D5F8A80020F40040C5F8A80040F2B6
:104120000800C2F20000C0F80080416040F20301C4
:10413000C2F200010978042902D001684068886150
:1041400041F6C460C2F20000F86005F13800B860C2
:104150007868012161F30F00786038684FF6C0710C
:1041600040F0010038606868C3F6FF7140F003005A
:1041700068602868084000F100402860286800282E
:10418000FCD404200F900F9810B10F980138F9E774
:10419000296809F10050014041F0010129604FF008
:1041A000A04100BF0A68D207FCD02968084040F04F
:1041B000040028606DE008204FF6C071C5F20000D1
:1041C000C5F6FF71036801F100521340103303601C
:1041D0000368DB0707D003681A4042F0020202605E
:1041E0000268D207FCD1026801F180531A400260D4
:1041F0000268114001604FF0A04000F0A3F840F2C7
:104200006C09C4F20209D9F8E00F40F2004420F42E
:104210000050C4F600040DF13C08C9F8E00F002777
:104220000126204641461497CDE90F66CDE9117766
:10423000139700F0A5F940F20805C2F200052C60C2
:104240006E602868696881624FF62840CFF6FF707B
:104250004FF48071215003200F9110904FF0904047
:104260004146139700F08CF9D9F8000020F00100C6
:10427000C9F8000041F6C460C2F20000078040F2B5
:104280000300C2F200000078042802D028686968A0
:10429000816115B0BDE8F08F704740F20800C2F2AE
:1042A0000000016840688862704740F20800C2F26E
:1042B0000000016840688861704740F22840C4F6F9
:1042C000000080210160704740F21840C4F60000F1
:1042D0008021016070470000FEE740F29400C2F2C6
:1042E0000000007E70470820FFF717FE012000F055
:1042F000B0FD00F02EFF02F017FA80B50822C5F2DB
:1043000000021368D2F800211A43D2071CBF012013
:1043100080BDD1E900C3826843F2E00ECFF6C07ED3
:1043200002EA0E0243B1D1E902E141EA0E01114372
:1043300041EA0C01194301E042EA0C0181600020CE
:1043400080BD000081B0002100918268D2074BD06F
:1043500081684FF6C07C4907C7F6FF7C08D58168A5
:10436000C90605D4816801EA0C0141F010018160A1
:104370008168090708D58168890605D4816801EA42
:104380000C0141F0200181604FF47861009100BF81
:10439000816883685B0943EA1111C90707D0009956
:1043A0000139009100990029F2D1012100E000219A
:1043B000C3684FF6FF72C7F6DF721A4002F50012AB
:1043C000C260826802EA0C0242F0020282604FF48C
:1043D000786200928268920706D5009A013A0092AC
:1043E000009A002AF6D101218268920601D00121AB
:1043F00087E0426840F2FF739A434260026840F6E9
:10440000200C1A43026082684FF6000322F0A0429B
:1044100082608268CFF2FE1342F000528260C2686E
:10442000CEF2820C02F0040202F10042C260026984
:104430001A400261426948F200036FF3DD024261F3
:104440008269CFF2000302F078428261026A1A4068
:1044500042F0706242F47F020262426A0CF1100381
:1044600042F47F0222F0FF024262826A42F47F023B
:1044700022F0FF028262026B1A400263426B40F23A
:10448000DF7302EA0C024263826B02EA0C0282636F
:10449000C26B9A43C263C26C44F20003C0F2104381
:1044A0001A40C264026E4FF20003C0F2FF031A40CA
:1044B0000266426E1A404266826E1A408266C26E80
:1044C0001A40C266D0F8A02043F6FF736FF31202C1
:1044D000C0F8A020D0F8A4206FF31202C0F8A420E6
:1044E000D0F8B0206FF31202C0F8B020D0F8B4209A
:1044F00022F07F12C0F8B420D0F8C0209A43C0F850
:10450000C020084601B070478268D2071CBF012056
:104510007047C2684CF2180322EA030CD1E900325A
:10452000896843EA0C031A431143C16000207047B5
:10453000B0B58268D2071CBF0120B0BDD1E900C26E
:10454000C3684CF21C0ECFF6F07E0EEA030E32B1B9
:1045500001F1080538CD496923432B4303E0D1E934
:10456000033449692343194341EA0C0141EA0E012E
:10457000C160016B21F00F01114301630020B0BD48
:104580002DE9F04F0C6894FAA4F2B2FA82F234FAF0
:1045900002F361D04FF001084FF0030B08FA02F369
:1045A00014EA030C54D0D1F80490A9F10103022BB2
:1045B0001CD29CFAACF6B6FA86F77E00D0F808A0BA
:1045C0000BFA06F3D1E902BE2AEA030A0BFA06F552
:1045D00045EA0A05856045684FF0030BA5430EFBCD
:1045E00004F4DB432543456008E000BF9CFAACF3CC
:1045F000B3FA83F77E000BFA06F3DB430D69C46858
:10460000B5401C402543B9F1020FC56019D14FEAEE
:104610001C2494FAA4F4D1F814E0BCF5807F28BFE0
:10462000B4FA84F74FF0240438BF202450F804C0B3
:10463000BF000F25BD402CEA05050EFA07F72F43F2
:104640000751D1E900470568B7402B403B43036061
:10465000013234FA02F3A1D10020BDE8F08F44F614
:10466000D351C1F26201A0FB01014FF0FF3000EB1A
:1046700091104EF21001CEF20001486000208860D7
:10468000052008607047000070B504460068C00748
:1046900033D10D4620684EF6F311CEF6FF7105F1C9
:1046A000080608404ECE0843184330432060606837
:1046B00020F4405010436060A869A16821F4407163
:1046C0000843A0604FF4406000F02EF8B8B16A686B
:1046D000AAB129880EA333F811100023B0FBF1F022
:1046E0000026010E000210EB520041F10001FEF71E
:1046F000E3F96FF31F50E06002E0012606E00126B7
:104700002888E16A21F00F010843E062304670BD5D
:10471000010002000400060008000A000C0010005E
:10472000200040008000000110B541F20004C4F2F6
:104730000204D4F8881008404FEAB020032807D0BC
:1047400002280CD0012813D1BDE8104000F0F0BAC7
:10475000D4F890004FF4004101EA803010BD206889
:1047600042F200414005C0F2F40101EAE07010BDE0
:1047700000F0DEFAA16846F62062C1F30311C0F62C
:104780000002515CA26846F63063C2F30222C0F612
:1047900000039A5C01F01F01C84002F01F01C840ED
:1047A00010BD10B5C0281CBF002010BD41F2000490
:1047B000C4F20204D4F88800C0F38110032807D0A3
:1047C00002280CD0012813D1BDE8104000F0B0BA87
:1047D000D4F890004FF4004101EA803010BD206809
:1047E00042F200414005C0F2F40101EAE07010BD60
:1047F00000F09EFAA16846F62062C1F30311C0F6EC
:104800000002515CA26846F63063C2F30222C0F691
:1048100000039A5C01F01F01C84002F01F01C8406C
:1048200010BD10B530282CD00C2833D003281CBF65
:10483000002010BD41F20004C4F20204D4F8880044
:104840004FF4404161F39F00B0F1031F34D00221C7
:10485000C0F20301884236D00121C0F20301884230
:1048600026D000F065FAA16846F62062C1F3031174
:10487000C0F60002515CA26801F01F01C2F3C2221F
:1048800039E041F20004C4F20204D4F88800C0F315
:10489000011007E041F20004C4F20204D4F88800D9
:1048A000C0F38100032807D002280CD0012813D1BF
:1048B000BDE8104000F03CBAD4F890004FF400413D
:1048C00001EA803010BD206842F200414005C0F28C
:1048D000F40101EAE07010BD00F02AFAA16846F682
:1048E0002062C1F30311C0F60002515CA26801F01E
:1048F0001F01C2F3022246F63063C0F600039A5C41
:10490000C84002F01F01C84010BD43F60001C4F2C8
:10491000000188421AD043F60041C4F200018842E7
:1049200020D043F20001C4F2010188421CBF0120E3
:10493000704741F23800C4F20200816841F48051AE
:104940008160816821F48051816017E041F2380074
:10495000C4F20200016841F480410160016821F461
:1049600080410AE041F23800C4F20200016841F4DB
:1049700000410160016821F400410160002070479E
:1049800040F21401C2F200010860704740F2FF7C5F
:1049900002460068C4F2000C624510DD40F60003D8
:1049A000C4F200039A4213D043F20043C4F201035D
:1049B0009A420DD042F60043C4F2010306E0B2F180
:1049C000804F05D040F20043C4F200039A4203D165
:1049D0004B6820F07000184343F2FF33C4F2010328
:1049E0009A4209DC624516DCB2F1804F28D040F2D1
:1049F0000043C4F2000321E044F2FF33C4F2010398
:104A00009A4211DC43F20043C4F201039A4217D0E8
:104A100044F2000310E040F60003C4F200039A429F
:104A20000ED042F6004307E044F60003C4F201034F
:104A30009A4205D044F20043C4F201039A4203D1E2
:104A4000CB6820F44070184310608868D062A2F1EF
:104A50008040A0F596300B884FEAB020072893627B
:104A600007D8012303FA00F010F0E50F1CBF086916
:104A70001063506940F0010100205161704700004F
:104A800070B504460068C0071CBF012070BD0E460B
:104A9000206846F6F311CEF6FF710840D6E9021CF5
:104AA000D6E904320843F5691843104328432060CF
:104AB000606820F4405040EA0C006060B069A16872
:104AC00021F440710843A06044F6FF30C4F20000B6
:104AD00084424FF001000DDC44F20041C4F20001B9
:104AE0008C4215D044F60001C4F200018C423AD148
:104AF00030200EE044F60041C4F200018C420BD09D
:104B000043F60001C4F201018C422CD1032000E0E5
:104B10000C20FFF786FE02E0C020FFF742FEC8B17E
:104B20007168B9B132680B2A1CD812A353F822203D
:104B3000F369B0FBF2F0B3F5004F0DD1400000EB8C
:104B40005100B0FBF1F04FF6F0710140C0F34200AC
:104B5000084406E0012006E000EB5100B0FBF1F054
:104B600080B2E06000203188E26A22F00F02114337
:104B7000E16270BD010000000200000004000000BE
:104B800006000000080000000A0000000C00000001
:104B90001000000020000000400000008000000025
:104BA000000100002DE9F0418CB040F20044C4F255
:104BB0000004E06D0DF11C0820F00F300130E065BD
:104BC00040461421FEF735F841F24C00C4F20200D1
:104BD000C16801AE41F00201C160C168022701F065
:104BE0000201019101990168002541F00101016074
:104BF0000068314600F001000190019810200190FA
:104C00004FF090400297CDE90355CDE90557FFF7E6
:104C1000B7FC4020CDE901074FF090403146CDE987
:104C20000355CDE90557FFF7ABFC4FF6FF70CDE913
:104C3000090520464146ADF81C500895FFF7A6FE31
:104C400020684FF6F87120F080002060A068CFF651
:104C5000FE7108400130A060A069012161F30100EC
:104C6000A061A06920F00C00A061A06920F0F00014
:104C7000A061206A20F00A002062A06961F3092087
:104C8000A061A0694FF68F7120F44060A061A06917
:104C9000CFF6FF5120F47040A061206A20F0A00000
:104CA0002062606808406060A06820F08000A0601A
:104CB0000CB0BDE8F0810000FEE70000FEE77047A1
:104CC0004FF09040016841F440710160016841F487
:104CD00040710160016841F440510160016841F494
:104CE0004051016040F20800C2F2000001684068D3
:104CF00088622820C4F600004FF48061016040F211
:104D00000040C4F20000016821F001010160016867
:104D100021F00101016041F25800C4F20200016873
:104D200021F002010160016821F002010160704779
:104D300041F20C01C4F2020151F8040C00F00C0223
:104D400042F200400C2AC0F2F40007D0082A18BF33
:104D5000704741F20020C0F27A0070470A680346AB
:104D600002F00302032A04BF41F20023C0F27A03D7
:104D7000022A0A6808BF0346C2F306200A680968C7
:104D8000C2F3031258430132B0FBF2F0C1F34161A8
:104D9000022202EB4101B0FBF1F0704741F6C46022
:104DA000C2F20000008840F6E4410009484340F2A6
:104DB0000111C0F21001A0FB0112801A02EB500099
:104DC00048F67951C00AC0F20101484344F6D35174
:104DD000C1F26201A0FB0101880970475820C4F2AA
:104DE0000200016821F00101016000BF0168C907EC
:104DF000FCD141F66471C2F20001C1604168FC223D
:104E000062F30F01416044F20841C4F2000100BFA7
:104E100051E8002F42F0400241E80023002BF7D177
:104E2000016841F0010101607047704710B540F220
:104E3000C801C2F20001097801B110BD0446FFF7B4
:104E40004CFA0028F9D140F20000C2F200000470D0
:104E500010BD47F20001C4F200010A6842F48072FA
:104E60000A6042F20052C4F2000213681843106054
:104E7000086820F480700860704710B540F2C804DC
:104E8000C2F200042070FFF728FA00B110BD2078AC
:104E9000002840F2B800C2F2000005D021780129B4
:104EA00005D1411C03200AE0C11C052007E0207841
:104EB0000228EBD140F2B8010820C2F200013422EE
:104EC000C4F20202916011684FF6FF7399430144E6
:104ED000116051696FF30F010844506110BD80B536
:104EE0000120FFF71AF80820BDE88040FFF7B1BFA6
:104EF00010B540F200444FF61840C4F60004CFF657
:104F0000FF704FF4805121504FF400612150202058
:104F1000A0614020A06140F20300C2F200000178CD
:104F200000293FD00178012942D1FFF7C9FE20684E
:104F300040F0C0002060206840F0C00020604FF0CA
:104F40009040016841F040410160016841F04041FA
:104F50000160016841F00C010160016841F00C0141
:104F600001608020A06244F20040C4F200000168A9
:104F700021F001010160016821F001010160582068
:104F8000C4F20200016821F001010160416921F0D1
:104F90000101416141F6C060C2F2000000680021D9
:104FA000016010BDFDF7DBFEBDE81040FEF739B82B
:104FB0000178022949D1FDF7D2FE4FF090400168F7
:104FC00041F00C010160016841F00C0101602068B2
:104FD00040F0C0002060206840F0C00020602068E1
:104FE00040F440702060206840F4407020608020D1
:104FF000A06244F20040C4F20000016821F0010107
:105000000160016821F0010101605820C4F2020032
:10501000016821F001010160416921F00101416154
:105020004FF62840CFF6FF700221215042F2600077
:10503000C2F20000FC21FDF7FCFD41F66470C2F2F3
:105040000000FC21FDF7F5FD10BD0178032902D118
:10505000FFF736FEA8E70078042818BF10BDA3E7C5
:1050600010B582B042F20000C4F2020001680422CE
:1050700062F30301016000BF016801F00F01042920
:10508000FAD147F20001C4F200010A68012341F29B
:10509000000063F34A22C4F202000A60016841F48E
:1050A0008031016001688903FCD5C16848F20C02B7
:1050B000CFF6FF12114042F203421143C160C168B2
:1050C00041F08071C160016841F08071016000BFF2
:1050D00001688901FCD58168082241F003018160E3
:1050E000816862F307118160816801F00C010C296D
:1050F000FAD155210191019911B101990139F9E7CD
:10510000816844F2004421F0F00181608168C0F6BA
:10511000950421F4E0618160816821F4605181602F
:105120002046FFF79CFA204602B0BDE81040FFF78A
:1051300027BC4EF60850CEF20000D0F8801041F4A3
:105140007001C0F8801042F60001C0F60001016055
:10515000704742F20040C4F20000C16A042221F00C
:105160000101C1624EF28011CEF200010A60BFF36C
:105170004F8FBFF36F8F016821F0010101600121A2
:10518000C163C16821F01801C16047F20000C4F298
:105190000000016821F48071016041F25800C4F2FE
:1051A0000200816B21F400418163016821F4806178
:1051B0000160704782B041F25800C4F202000168F9
:1051C000022241F080510160016801F0805100919C
:1051D0000099016841F480610160016801F4806117
:1051E00001910199816B41F40041816347F2000014
:1051F000C4F20000016841F48071016042F2004095
:10520000C4F20000016821F001010160C16862F38D
:10521000C401C160C16A41F00101C162016841F08D
:10522000010101604EF20240CEF200001021017037
:105230004EF20010CEF200000421016002B070476F
:10524000F0B581B041F21040C4F200006FF00101EE
:10525000016040F20300C2F200000078042800F26E
:105260005B83DFE810F00500610059038F00DB006D
:1052700040F2C807C2F20007387818250228C4F6A1
:10528000000500F07281012800F08D81002840F0B7
:10529000B88240F2B800C2F20000406846F63863B7
:1052A00001BA40F28C00C2F2000001600168C0F651
:1052B00000038A0F9A5CC1F3875672409A5CC1F36F
:1052C000873672409A5CC1F387115140595C02687D
:1052D00081F0FF0102F03F02B2EB910F40F00B8230
:1052E00040F20101C2F2000100220A7040F2800285
:1052F000C2F200020168136803F07F4343EA112100
:1053000011601168136863F3170101F18071116076
:10531000006800F0C000C02840F001824FF4006037
:1053200028604FF48050FFE15C20C4F20200006866
:1053300018240004C4F6000400F0D7804020C4F80C
:1053400000042020C4F8100441F6C660C2F2000038
:105350000178013101700078FF2808D140F2100077
:10536000C2F200000178B1FA81F14909017040F2FE
:105370001A00C2F200000078012840F0F380FEF726
:1053800021FD9DE140F2C000C2F20000416846F6F6
:1053900038670ABA40F29001C2F200010A600A6856
:1053A000C0F60007930FFB5CC2F387567340FB5CAB
:1053B000C2F387367340FB5CC2F387125A40BA5C73
:1053C0000B6882F0FF0203F03F031824B3EB920F47
:1053D000C4F600046FD140F20202C2F200020023C0
:1053E000137040F28403C2F200030A681F6807F0DA
:1053F0007F4747EA12221A601A681F6867F317028C
:1054000002F180721A60096801F0C001C02940F001
:10541000F9802021C4F800144021F7E040F2C000D8
:10542000C2F20000416846F638670ABA40F29001BD
:10543000C2F200010A600A68C0F60007930FFB5C25
:10544000C2F387567340FB5CC2F387367340FB5C44
:10545000C2F387125A40BA5C0B6882F0FF0203F075
:105460003F03B3EB920F40F21802C4F600022FD1B3
:1054700040F20203C2F2000300271F7040F28407CB
:10548000C2F200070B683E6806F07F4646EA132327
:105490003B603B683E6866F3170303F180733B6033
:1054A000096801F0C001C02940F0C3802021C2F882
:1054B00000144021C1E04021C4F800142021C4F8A8
:1054C000101440F20201C2F2000101220A709FE0B2
:1054D0004021C2F800142021C2F8101440F2020149
:1054E000C2F2000101220A70A9E041F6C065C2F2D1
:1054F0000005286846F63862C0F30161C0F6000274
:10550000515CC0F307435940515CC0F30723594035
:10551000515CC3B25940515C820E81F0FF01B2EB85
:10552000910F40F0A28040F20201C2F2000100227D
:105530000A7040F28401C2F200010A68C0F3D2107E
:1055400002F07F421044086008680A6862F317009E
:1055500000F1807008602020C4F800044020C4F8E6
:1055600010048EE0FEF772FCAAE040F2B800C2F22E
:105570000000D0E900016FF0030602BAD30856FA22
:1055800083F3022BC0F0C480C2F3C702022A00F0EA
:10559000CD80012A40F0D18009BA00F0407049095D
:1055A00041EAC001CAE040F2B800C2F2000000685F
:1055B00000BA00F44001B1F5800F40F0028140F2E2
:1055C0000101C2F2000100220A704FF4006129605B
:1055D0004FF4805140F280022961C2F200024FF67E
:1055E00080711368C0F2FF0101EA800003F07F417F
:1055F000084410601068116861F3170000F18070B2
:105600001060F1E04021C4F800142021C4F8101407
:1056100040F20001C2F200010978012950D100686E
:10562000C0F30060FEF77EFA01281BD1FDF7ABFE48
:1056300046E04021C2F800142021C2F8101440F2C4
:105640000001C2F200010978012940F0658100687B
:10565000C0F30060FEF766FA012840F05481FDF7C0
:1056600092FE59E1FDF7C9FE2AE04020C4F800048B
:105670002020C4F8100440F20200C2F20000012110
:10568000017040F21906C2F200063078FEF74AFABD
:10569000012803D1FEF796FB012002E0FEF7D6FBBE
:1056A000002040F21A01C2F200010870287800219F
:1056B000C0F30010307041F6C660C2F20000017005
:1056C00040F21040C4F200000168C90705D14FF450
:1056D000805020604FF400600BE0406940F2880188
:1056E000C2F200010A8808804FF4006020604FF485
:1056F0008050206110E14FF4805028604FF400602A
:10570000286140F20100C2F200000121017078E03E
:1057100009BA00F07060C90941EA40010EE04FF497
:10572000805028604FF4006028616AE009BA00F0F8
:10573000E060890941EA800100E0002140F28C002C
:10574000C2F200000160016846F638638A0FC0F6B5
:1057500000039A5CC1F3875672409A5CC1F38736A6
:1057600072409A5CC1F387115140595C026881F024
:10577000FF0102F03F02B2EB910F22D140F2010192
:10578000C2F2000100220A7040F28002C2F200025E
:105790000168136803F07F4343EA11211160116827
:1057A000136863F3170101F180711160006800F064
:1057B000C000C02812D14FF4006028604FF4805020
:1057C00011E04FF4805028604FF40060286140F2EF
:1057D0000100C2F200000121017005E04FF4805089
:1057E00028604FF40060286141F6B850C2F2000012
:1057F000016821B100210160FDF785FD01E0012173
:10580000016040F2C000C2F20000416846F638660E
:105810000ABA40F29001C2F200010A600A68C0F6BA
:105820000006930FF35CC2F387546340F35CC2F34A
:1058300087346340F35CC2F387125A40B25C0B6852
:1058400082F0FF0203F03F03B3EB920F21D140F24D
:105850000202C2F200020023137040F28403C2F27B
:1058600000030A681E6806F07F4646EA12221A60A4
:105870001A681E6866F3170202F180721A600968DE
:1058800001F0C001C02911D12021C5F80014402128
:1058900010E04021C5F800142021C5F8101440F292
:1058A0000201C2F2000101220A7005E04021C5F8A0
:1058B00000142021C5F8101440F20001C2F20001CA
:1058C0000978012910D0C9B9387828BB40F2B8004E
:1058D000C2F200000068C0F30060FEF723F901285F
:1058E0001FD1FDF7D9FC0EE00068C0F30060FEF7A1
:1058F00019F901280AD1FDF746FD09E0387800289A
:1059000008BFFDF700FDFDF778FD05E0FDF775FD2B
:10591000387808B9FDF7F7FC01B0BDE8F04000F0B9
:1059200043B8FDF7F0FCEEE741F20041C4F200019C
:10593000C86840F00100C8600A68082042F001020F
:105940000A6042F25C11C4F20200C2F20001C160BE
:1059500048F22401C4F2000142F25C228160C2F2EA
:10596000000204310262C16141684FF4807262F347
:105970000F01416048F20801C4F2000151E8002F14
:1059800042F0400241E80023002BF7D151E8002FFC
:1059900042F0800241E80023002BF7D1016841F07A
:1059A00001010160704700002DE9F04F83B0FEF760
:1059B00094FC032807D141F6BE50C2F2000000F06B
:1059C0001FFEFDF77DFD41F6BD57C2F20007387896
:1059D000092800F22A83DFE810F00A00AB00280350
:1059E0002900E10043013000B801400298020C2078
:1059F000C4F20200006841F6547180B2C0F58070B4
:105A0000C2F20001086041F6C860C2F200000068FE
:105A10000A68904240F09B8241F65870C2F2000042
:105A20000078002800F0B0830420ACE341F6BC50BD
:105A3000C2F2000001210170E4E041F2AC71C2F257
:105A40000001B1F80004002800F0EF8240F2840069
:105A5000C2F20000006840F2880202900290C2F296
:105A600000021288000EADF80420ADF8042091F871
:105A70000224824200F0888381F8020491F8040431
:105A8000029A41F8202091F80404013081F80404BE
:105A900041F6B430C2F2000090F80322BDF80430A1
:105AA00020F8123090F80322013280F8032291F896
:105AB000042491F80334D21AD2B2282AC0F06483A5
:105AC00091F8032491F804349A4226D041F6BE524C
:105AD000C2F2000200270432022300BF91F80364DF
:105AE000FDB251F826600437565190F80262FDB2BB
:105AF00030F8166053FA87F7565391F8036401366D
:105B000081F8036490F80262013680F8026291F82D
:105B1000036491F80454AE42E0D1B1F80024013A94
:105B2000A1F80024B0F80022013AA0F8002286E192
:105B300041F6CC69C2F2000948468521FDF779F8A3
:105B400041F66070C2F20000007841F65C7A41F6DE
:105B5000C8680028C2F2000AC2F2000800F01182F0
:105B6000D8F80040DAF8000042F25C152044013811
:105B7000C0B2C2F20005285CDAF8001001390A064A
:105B800000F05582CAB20021234600BFDEB2AE5DEE
:105B9000013A314403F10103F8D149E241F6587862
:105BA000C2F2000898F80010002900F0ED8241F6DA
:105BB0005979C2F2000999F8002040F2CA00C2F2F5
:105BC0000000862612FB06035643855D1879B3F85C
:105BD00002A0122800F247825E1DDFE810F01500D7
:105BE0002303130013002C031300130013003703C7
:105BF0003A0345034D035003530374037C03950399
:105C0000AC03B8030920BEE2FEF767FB012800F0F1
:105C1000BB82402D05D10AF01F000630412586F8D1
:105C20004100504629463246FDF732FC002800F07C
:105C30008F8441F65A70C2F2000001780131CAB275
:105C4000032A0170C0F0A082FDF703FC002800F0D9
:105C5000D28441F6BC50C2F20000032100F03ABCED
:105C600041F2AC71C2F20001B1F80004002800F06A
:105C7000DC8140F28800C2F200000088ADF8080024
:105C8000ADF8040040F28400C2F200000068029007
:105C9000029091F80234020E934200F0758241F6B0
:105CA000B430C2F2000090F80332BDF8047020F85E
:105CB000137090F80332013380F8033281F8022424
:105CC00091F80424029B41F8223091F80424013217
:105CD00081F8042491F8042491F80334D21AD2B242
:105CE000282AC0F0518291F8032491F804349A4292
:105CF00025D041F6BE52C2F2000200270432022330
:105D000091F80364FDB251F826600437565190F8BB
:105D10000262FDB230F8166053FA87F7565391F8D5
:105D20000364013681F8036490F80262013680F85A
:105D3000026291F8036491F80454AE42E0D1B0F8E5
:105D40000022013AA0F8002274E041F2AC71C2F2E4
:105D50000001B1F80004002800F0678140F28000E3
:105D6000C2F20000006840F2840202900190C2F288
:105D7000000212680292029291F80234120E9342CB
:105D800000F00282030E41F2A430C2F2000080F85B
:105D9000023490F80434019F40F8237090F80434E2
:105DA000013380F8043481F8022491F80424029B22
:105DB00041F8223091F80424013281F8042491F84A
:105DC000042491F80334D21AD2B21E2AC0F0DC8126
:105DD00091F8032491F804349A4226D041F6BE5239
:105DE000C2F2000200270432042300BF90F80364CB
:105DF000FDB250F826600437565191F80364FDB2A5
:105E000051F8266053FA87F7565190F8036401362B
:105E100080F8036491F80364013681F8036491F813
:105E2000036491F80454AE42E0D1B0F80024013A82
:105E3000A0F80024B1F800040138A1F80004B1F87A
:105E40000004020A41F6BE50C2F200004270B1F8EE
:105E50000014817000F0D4FB96E140F20000C2F221
:105E600000000178002900F094800078012840F0BB
:105E70008B8141F2AC71C2F20001B1F8000400283C
:105E800000F0D38040F28400C2F20000006802906B
:105E9000029091F80224000E824200F0758181F890
:105EA000020491F80404029A41F8202091F80404B5
:105EB000013081F8040491F8040491F80324801A55
:105EC000C0B23C28C0F0608191F8030491F804242A
:105ED0009042AFD041F6BE520020C2F2000204232D
:105EE00091F8037452FA80F651F8277053FA80F053
:105EF000776091F80374013781F8037491F80374A3
:105F000091F80464B742EBD194E741F6BC55C2F274
:105F1000000528780138062800F2FD80DFE810F03F
:105F20000700FF00E800FB00FB000F011F0140F22B
:105F30001800C2F20000EF21017041F6BE500121AD
:105F4000C2F20000CEF600710160012116E142F2BA
:105F50005C12C2F200020968125C41F66073C2F280
:105F600000031A701A78081A511D41F65C72C2F2C9
:105F7000000211601168C0B28842C0F005810120A2
:105F800001E141F6BC50D8F80040C2F20000062101
:105F90003EE141F2A431C2F20001B1F80004002850
:105FA00043D040F28000C2F20000006802900290EC
:105FB00091F80224000E824200F0E68081F802048B
:105FC00091F80404029A41F8202091F80404013069
:105FD00081F8040491F8040491F80324801AC0B2F3
:105FE0003C28C0F0D18091F8030491F80424904239
:105FF0003FF420AF41F6BE520020C2F2000204235B
:1060000091F8037452FA80F651F8277053FA80F031
:10601000776091F80374013781F8037491F8037481
:1060200091F80464B742EBD104E70020ABE0002113
:106030004942C9B288420ED1DAF800002044B0F5D6
:10604000807F00F2A480DAF8002041F6CC602919A4
:10605000C2F20000A8E041F6BC50C2F200000121EB
:1060600001700320D6E0A0F178030B2B00F26B82C5
:10607000DFE813F00D008A010C000C000C000C008E
:106080000C000C00BB01EE010702C302BAE541F6A9
:10609000BE50C2F200007823C370F023037041F6B3
:1060A000B4330AF10100C2F200030026A3F8000293
:1060B00083F8036283F8026241F2AC73C2F2000318
:1060C000A3F80004501C4EF28F324243520D02EBF3
:1060D000C202A0EB820083F8046483F8036483F8AF
:1060E000026489F80000481E88F8000005204AE094
:1060F00040F21800C2F20000DE21017041F6BE54E9
:106100000120C2F20004CDF600602060FDF7A1F985
:106110002071204633E000BF00BF00BF31E040F2F5
:106120001800C2F20000EF21017041F6BE500121BB
:10613000C2F20000CEF60071016002211EE040F2C2
:106140001800C2F20000EF21017041F6BE5001219B
:10615000C2F20000CEF60071016006210EE040F2AE
:106160001800C2F20000EF21017041F6BE5001217B
:10617000C2F20000CEF6007101600721017100F04B
:106180003FFA00202870387003B0BDE8F08FC4F5E6
:106190008076291948463246FCF706FDDAF80010E9
:1061A00009EB06008A1B2946FCF7FEFC41F6587BEA
:1061B000C2F2000B9BF80060232E24D841F65973DD
:1061C000B9F80100C2F200031B7840F2CA0C99F83A
:1061D000031000BAC2F2000C4FF0860E99F80020AE
:1061E000000C13FB0EC503FB0EF368802971681DBC
:1061F00009F104010CF80320FCF7D6FC701C8BF8A5
:106200000000042006E041F6BC50C2F2000002216A
:10621000017009203870DAF800002044C0B2C8F8D4
:106220000000B1E7022D80F08980A81910F8010C58
:1062300000F0CAFA72E1022D80F08080A81910F8EF
:10624000010C03B0BDE8F04F00F0F8BAFEF725F8F6
:1062500064E140F20300C2F200000078042800F07C
:106260004C81FEF722F844E1022D67D2A81910F8FC
:10627000010C00F06AFB51E1FEF71FF84EE1FEF75A
:1062800023F84BE1FEF729F801283FF47DAF504693
:1062900029463246FDF7FCF8002841F65A70C2F252
:1062A000000000F0918101780131CAB2032A017027
:1062B000FFF46AAF41F6BC51C2F2000104220A7039
:1062C0000921397094E1022D38D2A81910F8010C77
:1062D00000F03CFA22E141F6BE54C2F200040F2065
:1062E000E0704FF0000A211D30462A462570A4F8C0
:1062F00001A000F0B5F9204600F082F999F80000FD
:1063000087F800A001300EE141F6BE50C2F2000055
:106310001023C3700023A0F8013040F20003057081
:10632000C2F200031E78012E40F0D88040F28401B2
:10633000C2F20001D8E0022DC0F0EB8009203870D5
:1063400041F6BC50C2F2000006230370D7E041F6CC
:10635000BE54C2F200041220E0702570002540F205
:106360000400A4F80150C2F200000078012809D10D
:10637000FEF714FD6060204600F042F999F8002015
:1063800098F800103D70BAE041F6BE50C2F200002D
:106390007923C370F023037041F6B4330AF101008E
:1063A000C2F200030026A3F8000283F8036283F818
:1063B000026241F2AC73C2F20003A3F80004501C65
:1063C0004EF28F324243520D02EBC202A0EB82002A
:1063D00083F8046483F8036483F8026489F8000096
:1063E000481E88F800000620CDE641F6BE50C2F2F5
:1063F00000008023C370F023037041F2A4330AF13C
:106400000100C2F200030026A3F8000483F804642C
:1064100083F8036483F8026441F2AC73C2F20003B0
:10642000A3F80004501C4EF28F324243520D02EB8F
:10643000C202A0EB820083F8046483F8036483F84B
:10644000026489F80000481E88F8000007209AE6D8
:1064500041F6BE50C2F200008123C370F0230370E6
:1064600040F20000C2F200000378002B00F08980A7
:106470000078012840F0988041F2AC75C2F2000526
:1064800083E0FDF72AFF01283FF47EAE41F6BE52BD
:10649000C2F200028220D07002F8045B4FEA1A2098
:1064A00002F8030C5046294602F802ACFCF7D8FF6C
:1064B00000284DD041F65A70C2F200000178013137
:1064C000CAB2032A0170FFF45FAE41F6BC50C2F2BB
:1064D000000005210170092038704DE01B7863B978
:1064E00040F28001C2F2000109680291416000F0AF
:1064F00087F899F8002098F8001000203870501C98
:106500004EF28F324243520D02EBC202A0EB8200E8
:1065100013E0A81910F8010C00F03CF999F80010EC
:1065200000203870481C4EF28F314143490D01EB79
:10653000C101A0EB810098F8001089F80000481E06
:1065400088F8000020E6FF287FF45CABFDF7CBFE67
:1065500099F8001000203870481C4EF28F314143EA
:10656000490D01EBC101A0EB810098F8001089F8FA
:106570000000481E88F8000041F65A70C2F2000080
:1065800036E041F2A435C2F2000505F2024005F200
:10659000034305F2044605F580650AF101042C80E9
:1065A000002535701D700570501C4EF28F3242432D
:1065B000520D02EBC202A0EB820089F80000481ED7
:1065C00088F800000820DEE599F8002000213970E5
:1065D000511C4EF28F324A43520D02EBC202A1EB24
:1065E000820198F8002089F80010511E88F80010E8
:1065F00000210170C8E500206EE700F095F800006A
:1066000070B51C26C4F20206014600783268FC28E8
:1066100022F0010228BFFC20326072684FF6FF733F
:106620009A43024442F25C250532041DC2F2000581
:10663000726028462246FCF7B7FAE87829461030FF
:10664000E8700020224600BF11F8013B013A1844CF
:10665000FAD140422855306840F00100306070BDEA
:106660002DE9F04140F218470646C4F60007202005
:1066700000243860402015468846C4F20204386180
:10668000FEF7ACFBE06E20F00100E066E06EC007B4
:10669000FCD142F26000C2F2000031462A46FCF70B
:1066A00083FABFF34F8FBFF35F8F206F4FF6FF71F9
:1066B00088432844206744F20840C4F2000000BF29
:1066C00050E8001F41F0800140E80012002AF7D195
:1066D000E06E40F00100E0664BF6C150CFF6F0707E
:1066E0002168890303D4002800F10100F8D14FF498
:1066F000003041F6647560604FF48020C2F20005FE
:10670000606040462946FC22FCF74EFA2846FC21F0
:10671000FCF78FFAFEF762FB4020386020203861DA
:10672000BDE8F081FEE700004EF60C50BFF34F8F3E
:10673000CEF200000168042201F4E061C0F2FA52D6
:1067400011430160BFF34F8F00BFFDE702280BD05C
:10675000012814D0002840F2C800C2F200000078DE
:10676000A0B10020FEF789BB40F2C800C2F20000D1
:106770000078022808BF70470220FEF77EBB40F277
:10678000C800C2F200000078012800D17047012043
:10679000FEF773BB01280BD050B940F20400C2F2DF
:1067A00000000078002808BF70470020FDF7A5BB57
:1067B00040F20400C2F200000078012800D17047C6
:1067C0000120FDF79ABB000004280DD8DFE800F097
:1067D00003162B200C0040F20300C2F200000078E8
:1067E00040B30020FDF76DBB40F20300C2F2000091
:1067F000007804281ED00420FDF763BB40F203009C
:10680000C2F200000078012814D00120FDF759BB26
:1068100040F20300C2F200000078032808BF70476E
:106820000320FDF74EBB40F20300C2F200000078E7
:10683000022800D170470220FDF743BBB0B582B0FB
:106840000446FDF74AFD01287DD00DF1070218200E
:1068500001218DF80740FCF71BFEE0B141F65A74A8
:10686000C2F2000420780130C1B2032920706AD33B
:10687000FCF7EFFD00285FD041F6BC50C2F20000EB
:106880000321017041F6BD50C2F2000009210170E0
:106890000020207057E041F65972C2F200021078D1
:1068A0004EF28F3101304143490D41F6587E01EBE4
:1068B000C101C2F2000EA0EB81049EF8001041F667
:1068C000BD5C481EC5B28EF8000041F65A70C2F297
:1068D000000C0023C2F20000232D8CF8003014704D
:1068E00003701FD804F12300C3B239256B43DB0AC0
:1068F00043EAC303A0EB8300107040F2CA02C0B2A7
:10690000C2F20002862310FB0325584301231354CF
:10691000402068800D202871052000788EF8001036
:10692000687110E041F6BC50C2F200000221017013
:1069300009208CF8000006E041F6BD50C2F20000CC
:1069400000210170217002B0B0BD012809D00028DB
:1069500040F20000C2F20000007868B10020FEF7AB
:1069600065BA40F20000C2F200000078012808BFBA
:1069700070470120FEF75ABA704700008EB041F20E
:106980004807C4F2020762B6B8694EF60C5840F0E8
:106990000100B861B869CEF2000800F0010007906C
:1069A000079838694FF6FF0140F080503861386928
:1069B000042200F0805007900798D8F800000025C6
:1069C000084040F20031C0F2FA510843C8F8000014
:1069D000D8F8000048F20004C0F3022080F007015C
:1069E000042928BF11464FF0FF32033802FA01F1A3
:1069F00038BF2846C94301FA00F0000188F81700A3
:106A000047F20800C4F200000168C4F2000441F437
:106A100080410160FEF724FB0C95786840F2004B42
:106A200040F0200078607868C4F6000B00F0200089
:106A30000190019878684FF4006140F0010078609F
:106A4000786807AE00F001000190019878684FF077
:106A5000010A40F00200786078684FF4006900F0A5
:106A60000200019001984FF61840CFF6FF704BF8E6
:106A700000104FF480514BF800102020CBF8180084
:106A80004020CBF818008020CBF828004FF480700D
:106A900007904FF090403146CDE908A5CDE90A5561
:106AA000FDF76EFD4FF48060CDE9070A4FF090408E
:106AB0003146CDE909550B95FDF762FD4FF0904049
:106AC0003146CDF81C904FF40069CDE908A5CDE919
:106AD0000A55FDF755FD4FF48050CDE9070A4FF0F8
:106AE00090403146CDE909550B95FDF749FD102041
:106AF00007900220CDE9080506200C905846314643
:106B0000CDE90A55FDF73CFD2020CDE9070A58469E
:106B10003146CDE909550B95FDF732FD4020CDE911
:106B2000070A58463146CDE909550B95FDF728FD72
:106B30008020CDE9070A4EF20B4A58464EF2001B60
:106B40003146CEF2000ACDE909550B95CEF2000B85
:106B5000FDF716FD386801AE40F004003860386873
:106B6000314600F0040007900798386840F00100B3
:106B70003860386800F0010007900798386840F0E6
:106B800002003860386800F0020007900798D8F8D3
:106B900000008AF80050CBF80090D8F800008AF87E
:106BA00001504FF48050CBF80000D8F800008AF86C
:106BB00002504FF40050CBF80000D8F800008AF8DB
:106BC00003504FF48040CBF80000D8F800008AF85A
:106BD00004504FF40040CBF80000D8F800008AF8C9
:106BE00005504FF48030CBF80000D8F800008AF848
:106BF0002D504FF08070CBF80400D8F800008AF8D0
:106C00002E504FF00070CBF8040038684FF00208A7
:106C100040F00800386038684FF00C0900F00800B8
:106C200007900798386C20F440603864786940F029
:106C300001007861786900F0010007900798786892
:106C400040F001007860786800F001000790079834
:106C5000042001904FF09040CDE90285CDE9045524
:106C6000CDF81890FDF78CFC0820CDE901084FF015
:106C700090403146CDE90355CDE90559FDF780FC3B
:106C80000820C4F20200D0F8F817222262F30701AC
:106C9000C0F8F81701684BF6EF72CFF6FF7211409B
:106CA00001600168232621F440510160016841F030
:106CB00020010160016821F040010160016841F09C
:106CC00080010160016821F440710160016821F4D4
:106CD0004061016040F60401C4F202010B6866F3F2
:106CE00007030B604169114010314161416921F492
:106CF00040514161416921F020014161416921F028
:106D000040014161416941F080014161416921F4E3
:106D100040714161416921F44061416141F60030B7
:106D2000C0F2B700CDE9080507A920460795CDE9CF
:106D30000A55CDE90C95FDF7A7FC48F20800C4F20E
:106D4000000000BF50E8001F21F0604140E8001241
:106D5000002AF7D150E8001F21F0606140E80012DE
:106D6000002AF7D1206820F000502060206840F011
:106D700001002060E0698002FCD5E0694002F9D59D
:106D800007AC20461421FBF754FF38694FF400018B
:106D900040F020003861386941F2004500F02000E1
:106DA000019001984EF60C50CEF2000000680020D1
:106DB0008AF82C00CBF80410ADF81C00089041F2C2
:106DC000BF20C4F20005099028462146FDF7DEFDEC
:106DD00028684FF68F7120F0800028606868CFF631
:106DE000FF5108406860A86820F08000A860FEF7A6
:106DF000E1F9FEF774F8FDF7A5F8FCF779FBFEF76B
:106E000093FD00BFFEE7F1EE100A4FF6FF71C0F2EE
:106E1000C03120EA010040F04070E1EE100A7047F6
:106E2000000000000000000001020304060708093A
:106E30000000000001020304000C1814303C282458
:106E4000606C7874505C4844C0CCD8D4F0FCE8E462
:106E5000A0ACB8B4909C88848C809498BCB0A4A852
:106E6000ECE0F4F8DCD0C4C84C4054587C70646842
:106E70002C2034381C10040814180C0024283C3032
:106E800074786C6044485C50D4D8CCC0E4E8FCF022
:106E9000B4B8ACA084889C909894808CA8A4B0BC12
:106EA000F8F4E0ECC8C4D0DC5854404C6864707C02
:106EB0003834202C0804101C2824303C1814000CF2
:106EC0004844505C7874606CE8E4F0FCD8D4C0CCE2
:106ED0008884909CB8B4A0ACA4A8BCB094988C80D2
:106EE000C4C8DCD0F4F8ECE064687C7054584C40C2
:106EF00004081C1034382C203C3024280C001418B2
:106F00005C5044486C607478FCF0E4E8CCC0D4D8A1
:106F10009C908488ACA0B4B8B0BCA8A4808C989491
:106F2000D0DCC8C4E0ECF8F4707C6864404C585481
:106F3000101C0804202C3834000306050C0F0A0925
:106F40000B080D0E07040102686F00080000002006
:106F500020000000142A0008886F0008200000208C
:106F600038290000302A0008010101040100000056
:106F70000000004800010000010000000024F400AF
:086F8000FF0101000000000008
:04000005080029D9ED
:00000001FF
