:020000040800F2
:100000005029002079020008AD230008DD190008FE
:10001000A923000841160008FD3C0008000000006C
:100020000000000000000000000000001325000890
:10003000DB19000800000000AF230008910200084F
:10004000930200089302000893020008930200083C
:10005000930200089302000893020008930200082C
:10006000930200089302000893020008930200081C
:10007000930200089302000893020008930200080C
:100080009302000800000000930200089302000899
:1000900093020008930200089302000893020008EC
:1000A00093020008930200089302000893020008DC
:1000B00093020008930200089302000893020008CC
:1000C00093020008930200089302000893020008BC
:1000D00093020008930200089302000893020008AC
:1000E000930200089302000893020008930200089C
:1000F0009302000893020008930200080000000029
:1001000000000000930200080000000093020008B5
:100110009302000800000000930200083127000845
:10012000930200089302000893020008930200085B
:100130009302000800000000000000009302000885
:100140009302000893020008000000000000000075
:10015000000000000000000000000000000000009F
:1001600000000000000000000000000093020008F2
:1001700093020008000000000000000000000000E2
:1001800000000000930200080000000000000000D2
:10019000000000000000000000000000000000005F
:1001A0000000000000000000930200089302000815
:1001B0009302000893020008930200080000000068
:1001C0000000000093020008000000000000000092
:1001D000930200089302000800F002F800F03CF8D7
:1001E0000AA090E8000C82448344AAF10107DA4592
:1001F00001D100F031F8AFF2090EBAE80F0013F0A8
:10020000010F18BFFB1A43F001031847D04000004C
:10021000F0400000103A24BF78C878C1FAD85207DD
:1002200024BF30C830C144BF04680C607047000070
:100230000023002400250026103A28BF78C1FBD8EF
:10024000520728BF30C148BF0B6070471FB503F08D
:10025000A4FF1FBD10B510BD00F047F91146FFF710
:10026000F5FF03F05FFD00F065F903B4FFF7F2FF5F
:1002700003BC00F06DF900000948804709480047B9
:10028000FEE7FEE7FEE7FEE7FEE7FEE7FEE7FEE746
:10029000FEE7FEE704480549054A064B70470000A3
:1002A0001F270008D90100085023002050290020F2
:1002B000502500205025002053EA020C00F06980F0
:1002C0002DE9F04B4FF00006002B1FBFB3FA83F56A
:1002D00003FA05F424FA05F65E4012BF1643B2FA9B
:1002E00082F502FA05F4C5F120051EBF22FA05FCCD
:1002F00044EA0C04203556EA044C4FEA144418BF73
:10030000641C4FF000084FF00009904271EB030CA1
:1003100039D3002919BFB1FA81F701FA07F6B0FA0B
:1003200080F700FA07F6C7F120071EBF20FA07FC86
:1003300046EA0C062037B6FBF4FCA7EB0507103F96
:1003400007F01F0BCBF120062CFA06F60CFA0BFB7C
:1003500044BFB3460026202FA4BF5E464FF0000BDB
:100360005BEA060C08BF4FF0010B19EB0B0948EBD9
:100370000608ABFB027C06FB02CC0BFB03CCC01BCC
:1003800071EB0C01C1E70B46024641464846BDE809
:10039000F08B13B5084318BF4FF0FF300146AFF3A1
:1003A0000080BDE81C407047032A40F2308010F006
:1003B000030C00F0158011F8013BBCF1020F624400
:1003C00098BF11F801CB00F8013B38BF11F8013B91
:1003D000A2F1040298BF00F801CB38BF00F8013B3E
:1003E00011F0030300F04F80083AC0F0088051F884
:1003F000043B083A51F804CBA0E80810F5E7121DB9
:100400005CBF51F8043B40F8043BAFF30080D207D7
:1004100024BF11F8013B11F801CB48BF11F8012BA3
:1004200024BF00F8013B00F801CB48BF00F8012BC6
:1004300070474FF0000200B51346944696462039A7
:1004400022BFA0E80C50A0E80C50B1F12001BFF48D
:10045000F7AF090728BFA0E80C5048BF0CC05DF8F3
:1004600004EB890028BF40F8042B08BF704748BF41
:1004700020F8022B11F0804F18BF00F8012B7047B5
:1004800070477047704710B5203AC0F00B80B1E854
:100490001850A0E81850B1E81850A0E81850203AB9
:1004A000BFF4F5AF5FEA027C24BFB1E81850A0E8C2
:1004B000185044BF18C918C0BDE810405FEA827CDC
:1004C00024BF51F8043B40F8043B08BF7047D207F3
:1004D00028BF31F8023B48BF11F8012B28BF20F894
:1004E000023B48BF00F8012B7047754600F02CF81E
:1004F000AE4605006946534620F00700854618B011
:1005000020B5FFF7C7FEBDE820404FF000064FF0D2
:1005100000074FF000084FF0000BAC46ACE8C009F4
:10052000ACE8C009ACE8C009ACE8C00921F007019B
:100530008D46704710B50446AFF300802046BDE8F5
:100540001040FFF792BE00000048704720000020D6
:1005500001491820ABBEFEE72600020070474FF0AD
:100560009040016841F440610160016841F44061DC
:100570000160016841F440510160016841F440515B
:10058000016040F20800C2F2000001684068886221
:100590002820C4F600004FF48061016043F200009F
:1005A000C4F20100016821F040010160016821F0FE
:1005B000400101603020C4F20200016821F0010115
:1005C0000160416921F00101416140F2B800C2F2CD
:1005D00000000021C0E9001170472DE9F04F87B0FD
:1005E000002741F248000597C4F202000168032386
:1005F00041F0040101600168042601F00401069144
:1006000006990168C4F6000641F001010160016825
:10061000E94601F00101069106990168302541F093
:1006200002010160016843F2000801F00201069135
:10063000069981694FF4806441F480518161816938
:10064000C4F2020501F48051069106994168C4F292
:10065000010841F001014160416801F0010106918A
:100660000699416841F002014160416801F00201D0
:1006700006910699816941F480518161806900F495
:100680008050069006984FF09040016841F040413C
:10069000016040F20800C2F20000016842688A610D
:1006A000016840680A6890FAA0F0B0FA80F0400053
:1006B00083409A43012303FA00F010430860306836
:1006C000494620F4806030604FF09040CDE900430F
:1006D000CDE90277049701F0CBFA746120244FF042
:1006E000020A4FF0050B4FF0904049460094CDE9C7
:1006F00001A7CDE90377CDF814B001F0B9FA402095
:100700007461CDE9000A4FF090404946CDE9027787
:10071000CDE9047B01F0ACFA28680A2120F0010041
:100720002860D5F8D8070B2361F30700C5F8D80770
:1007300029684BF6EF70CFF6FF70014029602968F9
:1007400021F440512960296821F02001296029689D
:1007500021F040012960296841F080012960296861
:1007600021F440712960296821F440612960696998
:1007700021F00101696140F60C01C4F202010A682E
:1007800063F307020A60696940F201020840103011
:1007900068616869C2F2000220F4405068616869CB
:1007A00020F020006861686920F040006861686995
:1007B00040F080006861686920F440706861686991
:1007C00020F440606861D8F8000020F04000C8F8CC
:1007D000000008F10C00A8601178002940F2B8016F
:1007E000C2F2000104D01278012A03D1033100E0E3
:1007F0000131E9606968052262F30F016960E8610F
:10080000A86962F30F00A861D8F8040040F0020064
:10081000C8F80400D8F8040040F00100C8F804004B
:10082000D8F8000040F04000C8F80000286840F008
:100830000100286007B0BDE8F08F40F20040C4F628
:1008400000000168022241F0C0010160016841F02E
:10085000C0010160016841F440710160016841F428
:1008600040710160802181624FF62841CFF6FF710F
:10087000425043F60040C4F20000016821F04001FC
:100880000160016821F04001016040F20840C4F2BB
:100890000200016821F001010160416921F00101BC
:1008A000416140F2C000C2F200000021C0E9001125
:1008B00070472DE9F04387B0002641F248000596C5
:1008C000C4F20200016840F2004441F004010160FA
:1008D0000168C4F6000401F004010691069901685C
:1008E000022741F0010101600168E84601F00101C1
:1008F00006910699016841F002010160016801F06A
:10090000020106910699016941F400410161016902
:1009100001F4004106910699416841F001014160EE
:10092000416801F0010106910699416841F0020118
:100930004160416801F0020106910699016941F4A4
:1009400000410161006900F40040069006984FF0F4
:100950009040016841F0404101608020A061206822
:10096000012161F38F302060606820F080006060BA
:10097000CDE900714FF090404146CDE90266049602
:1009800001F076F94FF61840CFF6FF702750082592
:100990004FF0060920464146CDE90057CDE90266F1
:1009A0000496CDF8149001F063F91020A561CDE90B
:1009B000000720464146CDE90266CDE9046901F011
:1009C00057F940F20840C4F2020001680E2221F0FB
:1009D00001010160D0F818140F2762F30701C0F875
:1009E000181402684BF6EF71CFF6FF710A400260EF
:1009F000026822F440520260026822F02002026083
:100A0000026822F040020260026842F08002026046
:100A1000026822F440720260026822F440620260BE
:100A2000426922F00102426140F62402C4F202024D
:100A3000136867F307031360426940F2C003114073
:100A4000103141614169C2F2000321F4405141611A
:100A50004169033321F0200141614169052721F0FB
:100A600040014161416941F080014161416921F4E6
:100A700040714161416921F44061416143F60041A7
:100A8000C4F200010A6822F040020A6001F10C027F
:100A90008260C360436867F30F034360C261826989
:100AA00067F30F0282614A6842F002024A604A68B4
:100AB00042F001024A600A6842F040020A6001689E
:100AC00041F00101016007B0BDE8F08370B54FF05F
:100AD00090452868012161F38B2030262860C4F2FC
:100AE0000206306843F2000420F0010030607069B3
:100AF000C4F2010420F001007061204601F07DFA8B
:100B00004FF45B70206041F203706060B0690521B2
:100B100061F30F00B061706861F30F00706070697D
:100B2000022140F001007061286861F38B20286089
:100B3000306840F00100306070BDB0B53025C4F2BF
:100B40000205286843F2000420F00100286068696B
:100B5000C4F2010420F001006861204601F04DFA62
:100B600040F26F30206041F20370606040F201009B
:100B7000C2F20000017821B10078012812D10520CD
:100B800005E02068062161F3C50020600320A96903
:100B90004FF6FF7291430144A96169686FF30F0139
:100BA00008446860686940F001006861286840F0A6
:100BB00001002860B0BD70B540F20045C4F60005E4
:100BC0002868012161F3871040F208462860C4F2CA
:100BD0000206306843F6004420F00100306070697E
:100BE000C4F2000420F001007061204601F005FA13
:100BF0004FF45B70206041F203706060B0690521C2
:100C000061F30F00B061706861F30F00706070698C
:100C1000022140F001007061286861F387102860AC
:100C2000306840F00100306070BDB0B540F208455A
:100C3000C4F20205286843F6004420F00100286051
:100C40006869C4F2000420F001006861204601F0E8
:100C5000D4F940F26F30206041F203706060A869FF
:100C6000052161F30F00A861686861F30F006860F7
:100C7000686940F001006861286840F00100286060
:100C8000B0BD40F29400C2F2000090F8200070471E
:100C900080B540F2940EC2F2000E9EF817308446E2
:100CA0004FF0010003B180BD8EF818008EF81700D8
:100CB00000208EF808C08EF80910CEF8102080BDF4
:100CC00040F2940CC2F2000C9CF81730002B4FF04D
:100CD00001030BD18CF8183002238CF81730002355
:100CE0008CF808008CF80910CCF8102018467047D2
:100CF00040F29401C2F20001087E032802D0087E6F
:100D0000022804D10020C875002008767047C87DED
:100D10000028F9D0087E04281CBF01207047F3E7A3
:100D20002DE9F04F8FB040F200444FF6184BC4F657
:100D30000004CFF6FF7B4FF480504FF6284744F86D
:100D40000B00CFF6FF774FF40060E0514020A06128
:100D50002020A06240F20400C2F2000000780428C3
:100D600000F28C82DFE810F00500080072018D02AD
:100D7000A302FFF732FC9AE2582644F20045C4F27F
:100D80000206C4F2000501F085FA4FF48060E051DC
:100D900040F20800C2F20000016840684FF0000A0B
:100DA000886140F20040C4F20000C0F824A001684D
:100DB000E84641F00101016040462021FFF739FB80
:100DC00041F24800C4F20200016C0DF1200921F04B
:100DD0000C0101640168022741F00401016001680F
:100DE0004FF0070B01F0040108910899016841F0E8
:100DF00001010160016801F0010108910899016891
:100E000041F002010160016801F0020108910899B6
:100E1000016941F400310161016901F40031089177
:100E20000899416841F001014160416801F0010108
:100E300008910899416841F00201416040684946C3
:100E400000F00200089008984FF09040CDE9087734
:100E5000CDE90AAACDF830A0CDF834B000F008FFF3
:100E60004FF4004008A981E881044FF090404946C2
:100E7000CDE90BAACDF834B000F0FAFE082008A99D
:100E800081E8810420464946CDE90BAACDF834B06B
:100E900000F0EEFE30681A2120F001003060D6F834
:100EA000B8071B2361F30700C6F8B80731684BF693
:100EB000EF70CFF6FF7001403160316821F440518E
:100EC0003160316821F020013160316821F040014A
:100ED0003160316841F080013160316821F4407146
:100EE0003160316821F440613160716921F00101A4
:100EF000716140F61401C4F202010A6863F307024B
:100F00000A6071690840103070617069414620F4D0
:100F100040507061706920F020007061706920F0AD
:100F200040007061706940F080007061706920F469
:100F300040707061706920F4406070614CF2C06074
:100F4000C0F22D00CDE9010A0C20CDE9050A2846A2
:100F5000CDF800A0CDE903AACDF81CA001F008F956
:100F600044F20840C4F2000050E8001F21F0604144
:100F700040E80012002AF7D150E8001F21F060611C
:100F800040E80012002AF7D1A96841F48041A96025
:100F9000A96821F40041A960296821F078712960CD
:100FA000296821F4F8112960296821F0005129608D
:100FB000696821F490416960A96821F02A01A9605B
:100FC000296841F001012960316841F00101316077
:100FD000716941F001017161E9698902FCD5E96932
:100FE0004902F9D58021A16129682A4621F0010131
:100FF00042F8241B2168022363F3871121604FF01C
:1010000090410F6863F39F770F6041F6BC61C2F2B5
:101010000001B260F1607168042262F30F01716037
:1010200050E8001F41F0400140E80012002AF7D1CB
:101030002868102161F359502860286861F3144032
:101040002860286840F00100286013E1582644F227
:101050000045C4F20206C4F20005FFF7BEFA802084
:10106000A06120684FF0010969F38F30206060684B
:10107000E84620F0800060604FF0000A40462021E2
:10108000CDF834A0FFF7D5F941F24800C4F20200D0
:101090004168022741F001014160416801F001010E
:1010A0000E910E99416841F002014160416801F0E2
:1010B00002010E910E99016941F40031016101694B
:1010C00001F400310E910E99016841F004010160B4
:1010D000016801F004010E910E99016841F00101CF
:1010E0000160006800F001000E900E9808A880E8EA
:1010F00080060DF120094FF090404946CDE90BAA3A
:1011000000F0B6FD102044F80B70CDE908074FF051
:10111000070B20464946CDE90A7ACDF830A0CDF834
:1011200034B000F0A5FD082008A981E8810420461C
:101130004946CDE90BAACDF834B000F099FDD6F8B8
:10114000B8071A2161F30700C6F8B80730684BF6F4
:10115000EF71CFF6FF710840306030681B2320F438
:1011600040503060306820F020003060306820F05F
:1011700040003060306840F080003060306820F41B
:1011800040703060306820F44060306040F61400F9
:10119000C4F20200026863F307020260706908404B
:1011A000103070617069414620F440507061706980
:1011B00020F020007061706920F04000706170695B
:1011C00040F080007061706920F440707061706957
:1011D00020F4406070614FF4E120CDE9010A0C2059
:1011E000CDE9050A2846CDE903AACDF81CA000F0F8
:1011F000BFFF286840F00100286000BFE869800256
:10120000FCD5E8694002F9D541F20040C4F2000083
:10121000C16841F00101C160016841F00101016054
:1012200041F65C70C2F20000F06005F12400B0608D
:101230007068FC2161F30F00706042F25800C2F246
:101240000000306205F12800F06144F20840C4F269
:10125000000000BF50E8001F41F0800140E800128C
:10126000002AF7D150E8001F41F0400140E8001289
:10127000002AF7D1306840F0010030600FB0BDE8BF
:10128000F08F01F007F84FF48060E05140F2080061
:10129000C2F2000001684068886140F20040C4F278
:1012A000000000214162016841F0010101600FB0BE
:1012B000BDE8F04FFFF7FDBA40F29402C2F200021F
:1012C000D17D072900F2A380DFE811F02901080091
:1012D000310058006E00A300B9009C00107A0C2366
:1012E00000F07F0144F2CC2C83EA1113C0F6000C0D
:1012F0001CF8033000F00F0058401CF800003C239D
:10130000A3EB800000F47F7040EA811040F480304D
:1013100040F00200106002201075002050605081E3
:101320000320D0754FF48030D0610121F7E0107AAE
:101330000C2300F07F0144F2CC2C83EA1113C0F699
:10134000000C1CF8033000F00F0058401CF800009F
:101350003C23A3EB800000F47F7040EA811000F191
:10136000011010600121002003231175508150608D
:10137000D375A2F815004FF4803013E0D17A013113
:10138000D172C9B2C1F1120C536800FA0CF01843C3
:10139000112950605FD81068D1690140D06918BF29
:1013A00001214008D061BAE0D17A5368C1F10D0C37
:1013B00000FA0CF018430D2950605CD3506844F2D9
:1013C000CC23C0F30321C0F60003595CC0F3031023
:1013D0004840185C5168C0F10F0001F00F018842CD
:1013E0004CD150681169937A0009C854507A917AA7
:1013F0000131CBB28342917280F07E800020506038
:10140000D07292E7107B10B10138107386E0002192
:101410001FE0917D032900F27C80DFE801F00233B8
:101420003D53517D0123022993756ED001296ED061
:1014300000296ED101210028517572D169E0042084
:101440001076507B002101305073507B0E2866D1FE
:101450005173D17563E05168107D430803F5803303
:1014600099420DD100210523D172022808BF04231F
:10147000D375516059E7481CD0724FE0032049E012
:10148000012047E0022100239175D1725360C8B357
:101490001068C0F3C02142E0D17A5368C1F10D0C4D
:1014A00000FA0CF018435060481CD0721168C0B2AA
:1014B000C0F10D03D9400D2801F0010104BF032044
:1014C00090752CE00021D37A9175C3F10D0153681A
:1014D00088401843506050681168B0EB510F18D124
:1014E000507A917A0131CBB283429172FFF41DAFF1
:1014F00002205075107611E0032010760720D07579
:101500000E2082E782F8201006E010B9F6E70128E5
:1015100007D1022082F820000620D075002108465D
:1015200070471069917A44F2CC2C405CC0F6000CF4
:1015300001091CF8011000F00F0359401CF80110BC
:101540001E23A3EB410101F4FF7141EA401010603A
:101550001068C0F30031E2E780B540F20400C2F247
:1015600000000078042830D8DFE800F003092F05D8
:101570000500FFF7ABFABDE88040FFF71CBB582021
:10158000C4F202000168042221F0010101604168F7
:1015900062F30F014160016841F00101016040F216
:1015A0001000C2F200000078012808D0002818BFFF
:1015B00080BD44F22840C4F20000812104E044F2DE
:1015C0002840C4F200002221016080BD80B540F2B5
:1015D0000400C2F200000078042830D8DFE800F0F0
:1015E00003092F050500FFF7A8FABDE88040FFF7C3
:1015F0001CBB5820C4F202000168042221F0010142
:101600000160416862F30F014160016841F001012E
:10161000016040F21000C2F200000078012808D0FA
:10162000002818BF80BD44F22840C4F20000B12158
:1016300004E044F22840C4F200001221016080BDA1
:10164000FEE710B5044600F085FF40F20400C2F248
:1016500000000470017861B10178012909D0017896
:10166000022906D00178032903D00078042818BF86
:1016700010BDBDE81040FFF753BB40F20501C2F2B8
:10168000000108700878012801D100F007B8087837
:10169000002808BF00F002B8704700002DE9F04FA5
:1016A00095B040F20500C2F200000078002800F07A
:1016B0003081012840F08E81002641F28800CDE97A
:1016C0000A66CDE90666CDE90466C4F20200016847
:1016D00002226C2762F31D71C4F202070160D7F881
:1016E000E00F02AC40F40050C7F8E00FD7F8E00F6D
:1016F0004FF6C07800F400500F900F98D7F8E00F25
:10170000082540F00100C7F8E00FD7F8E00F4FF0D0
:10171000010900F001000F900F984FF0030B4FF0FC
:1017200090402146C5F6FF78C5F20005CDF8089037
:10173000CDF80CB006964FF0904A00F099FA40F2BE
:101740000040C4F600002146CDE9029B069600F059
:101750008FFAD7F8A807052161F30700C7F8A80793
:10176000386844F210018843386038680CA920F4C6
:1017700040503860386840F020003860386820F009
:1017800040003860386840F080003860386869F39D
:1017900009203860386869F38B2038604FF0A0402A
:1017A000CDE90C660E9600F027FA4FF40050CDE913
:1017B00012064FF4805014900FA94FF0A040CDE9CD
:1017C0000F66119600F02CFAD5F8B80043F6FF71B9
:1017D0008843C5F8B800A86840F2034120F480307F
:1017E000A860A86888430130A860A868272161F331
:1017F0008800A860A86808A920F420708030A8603C
:101800004FF44030CDE9080605F53E7000F0EDF8E4
:10181000286808F1805100EA08002860286808401C
:1018200000F18050286040F21400C2F2000000680D
:1018300042F663518009C0F23E51A0FB01016FF0F6
:10184000010000EA511000BF0190019810B1019809
:101850000138F9E7A86A0F2161F38A10A8622869A4
:101860004FF4807420F460302861D5F8A80002A9F4
:1018700020F40040C5F8A8004FF09040CDE902499F
:10188000CDE90466069600F0F3F940F20800C2F2D2
:101890000000C0F800A0446001684068886141F61B
:1018A000C060C2F20000F86005F13800B8607868E6
:1018B0004FF6C07169F30F0078603868C3F6FF71A6
:1018C00040F001003860686840F0030068602868F4
:1018D000084000F10040286028680028FCD404205B
:1018E0000F900F9810B10F980138F9E7296808F1A7
:1018F0000050014041F0010129604FF0A04100BFBC
:101900000A68D207FCD02968084040F0040028602B
:1019100060E008204FF6C071C5F20000C5F6FF7107
:10192000036801F100521340103303600368DB07C2
:1019300007D003681A4042F0020202600268D20730
:10194000FCD1026801F180531A4002600268114024
:1019500001604FF0A04000F06DF86C26C4F2020662
:10196000D6F8E00F40F2004420F40050C4F6000422
:101970000DF13C08C6F8E00F00270125204641463E
:101980001497CDE90F55CDE91177139700F070F951
:1019900040F20800C2F2000004604560016840683F
:1019A0004FF480758861032010904FF090404146BD
:1019B0000F95139700F05CF94FF62840CFF6FF70B3
:1019C0002550306820F00100306041F6C060C2F25E
:1019D0000000078015B0BDE8F08F7047FEE740F2C9
:1019E0009400C2F20000007E704780B50822C5F264
:1019F00000021368D2F800211A43D2071CBF01204D
:101A000080BDD1E900C3826843F2E00ECFF6C07E0C
:101A100002EA0E0243B1D1E902E141EA0E011143AB
:101A200041EA0C01194301E042EA0C018160002007
:101A300080BD000081B0002100918268D2074BD0A8
:101A400081684FF6C07C4907C7F6FF7C08D58168DE
:101A5000C90605D4816801EA0C0141F010018160DA
:101A60008168090708D58168890605D4816801EA7B
:101A70000C0141F0200181604FF47861009100BFBA
:101A8000816883685B0943EA1111C90707D000998F
:101A90000139009100990029F2D1012100E00021D3
:101AA000C3684FF6FF72C7F6DF721A4002F50012E4
:101AB000C260826802EA0C0242F0020282604FF4C5
:101AC000786200928268920706D5009A013A0092E5
:101AD000009A002AF6D101218268920601D00121E4
:101AE00087E0426840F2FF739A434260026840F622
:101AF000200C1A43026082684FF6000322F0A042D5
:101B000082608268CFF2FE1342F000528260C268A7
:101B1000CEF2820C02F0040202F10042C2600269BD
:101B20001A400261426948F200036FF3DD0242612C
:101B30008269CFF2000302F078428261026A1A40A1
:101B400042F0706242F47F020262426A0CF11003BA
:101B500042F47F0222F0FF024262826A42F47F0274
:101B600022F0FF028262026B1A400263426B40F273
:101B7000DF7302EA0C024263826B02EA0C028263A8
:101B8000C26B9A43C263C26C44F20003C0F21043BA
:101B90001A40C264026E4FF20003C0F2FF031A4003
:101BA0000266426E1A404266826E1A408266C26EB9
:101BB0001A40C266D0F8A02043F6FF736FF31202FA
:101BC000C0F8A020D0F8A4206FF31202C0F8A4201F
:101BD000D0F8B0206FF31202C0F8B020D0F8B420D3
:101BE00022F07F12C0F8B420D0F8C0209A43C0F889
:101BF000C020084601B070478268D2071CBF012090
:101C00007047C2684CF2180322EA030CD1E9003293
:101C1000896843EA0C031A431143C16000207047EE
:101C2000B0B58268D2071CBF0120B0BDD1E900C2A7
:101C3000C3684CF21C0ECFF6F07E0EEA030E32B1F2
:101C400001F1080538CD496923432B4303E0D1E96D
:101C5000033449692343194341EA0C0141EA0E0167
:101C6000C160016B21F00F01114301630020B0BD81
:101C70002DE9F04F0C6894FAA4F2B2FA82F234FA29
:101C800002F361D04FF001084FF0030B08FA02F3A2
:101C900014EA030C54D0D1F80490A9F10103022BEB
:101CA0001CD29CFAACF6B6FA86F77E00D0F808A0F3
:101CB0000BFA06F3D1E902BE2AEA030A0BFA06F58B
:101CC00045EA0A05856045684FF0030BA5430EFB06
:101CD00004F4DB432543456008E000BF9CFAACF305
:101CE000B3FA83F77E000BFA06F3DB430D69C46891
:101CF000B5401C402543B9F1020FC56019D14FEA28
:101D00001C2494FAA4F4D1F814E0BCF5807F28BF19
:101D1000B4FA84F74FF0240438BF202450F804C0EC
:101D2000BF000F25BD402CEA05050EFA07F72F432B
:101D30000751D1E900470568B7402B403B4303609A
:101D4000013234FA02F3A1D10020BDE8F08F44F64D
:101D5000D351C1F26201A0FB01014FF0FF3000EB53
:101D600091104EF21001CEF2000148600020886010
:101D7000052008607047000070B504460068C00781
:101D800033D10D4620684EF6F311CEF6FF7105F102
:101D9000080608404ECE0843184330432060606870
:101DA00020F4405010436060A869A16821F440719C
:101DB0000843A0604FF4406000F02EF8B8B16A68A4
:101DC000AAB129880EA333F811100023B0FBF1F05B
:101DD0000026010E000210EB520041F10001FEF757
:101DE0006BFA6FF31F50E06002E0012606E0012667
:101DF0002888E16A21F00F010843E062304670BD97
:101E0000010002000400060008000A000C00100097
:101E1000200040008000000110B541F20004C4F22F
:101E20000204D4F8881008404FEAB020032807D0F5
:101E300002280CD0012813D1BDE8104000F0F0BA00
:101E4000D4F890004FF4004101EA803010BD2068C2
:101E500042F200414005C0F2F40101EAE07010BD19
:101E600000F0DEFAA16844F2B412C1F30311C0F627
:101E70000002515CA26844F2C413C2F30222C0F60D
:101E800000039A5C01F01F01C84002F01F01C84026
:101E900010BD10B5C0281CBF002010BD41F20004C9
:101EA000C4F20204D4F88800C0F38110032807D0DC
:101EB00002280CD0012813D1BDE8104000F0B0BAC0
:101EC000D4F890004FF4004101EA803010BD206842
:101ED00042F200414005C0F2F40101EAE07010BD99
:101EE00000F09EFAA16844F2B412C1F30311C0F6E7
:101EF0000002515CA26844F2C413C2F30222C0F68D
:101F000000039A5C01F01F01C84002F01F01C840A5
:101F100010BD10B530282CD00C2833D003281CBF9E
:101F2000002010BD41F20004C4F20204D4F888007D
:101F30004FF4404161F39F00B0F1031F34D0022100
:101F4000C0F20301884236D00121C0F20301884269
:101F500026D000F065FAA16844F2B412C1F303116F
:101F6000C0F60002515CA26801F01F01C2F3C22258
:101F700039E041F20004C4F20204D4F88800C0F34E
:101F8000011007E041F20004C4F20204D4F8880012
:101F9000C0F38100032807D002280CD0012813D1F8
:101FA000BDE8104000F03CBAD4F890004FF4004176
:101FB00001EA803010BD206842F200414005C0F2C5
:101FC000F40101EAE07010BD00F02AFAA16844F2C1
:101FD000B412C1F30311C0F60002515CA26801F013
:101FE0001F01C2F3022244F2C413C0F600039A5C3C
:101FF000C84002F01F01C84010BD43F60001C4F202
:10200000000188421AD043F60041C4F20001884220
:1020100020D043F20001C4F2010188421CBF01201C
:10202000704741F23800C4F20200816841F48051E7
:102030008160816821F48051816017E041F23800AD
:10204000C4F20200016841F480410160016821F49A
:1020500080410AE041F23800C4F20200016841F414
:1020600000410160016821F40041016000207047D7
:1020700040F21401C2F200010860704740F2FF7C98
:1020800002460068C4F2000C624510DD40F6000311
:10209000C4F200039A4213D043F20043C4F2010396
:1020A0009A420DD042F60043C4F2010306E0B2F1B9
:1020B000804F05D040F20043C4F200039A4203D19E
:1020C0004B6820F07000184343F2FF33C4F2010361
:1020D0009A4209DC624516DCB2F1804F28D040F20A
:1020E0000043C4F2000321E044F2FF33C4F20103D1
:1020F0009A4211DC43F20043C4F201039A4217D022
:1021000044F2000310E040F60003C4F200039A42D8
:102110000ED042F6004307E044F60003C4F2010388
:102120009A4205D044F20043C4F201039A4203D11B
:10213000CB6820F44070184310608868D062A2F128
:102140008040A0F596300B884FEAB02007289362B4
:1021500007D8012303FA00F010F0E50F1CBF08694F
:102160001063506940F00101002051617047000088
:1021700070B504460068C0071CBF012070BD0E4644
:10218000206846F6F311CEF6FF710840D6E9021C2E
:10219000D6E904320843F569184310432843206008
:1021A000606820F4405040EA0C006060B069A168AB
:1021B00021F440710843A06044F6FF30C4F20000EF
:1021C00084424FF001000DDC44F20041C4F20001F2
:1021D0008C4215D044F60001C4F200018C423AD181
:1021E00030200EE044F60041C4F200018C420BD0D6
:1021F00043F60001C4F201018C422CD1032000E01F
:102200000C20FFF786FE02E0C020FFF742FEC8B1B7
:102210007168B9B132680B2A1CD812A353F8222076
:10222000F369B0FBF2F0B3F5004F0DD1400000EBC5
:102230005100B0FBF1F04FF6F0710140C0F34200E5
:10224000084406E0012006E000EB5100B0FBF1F08D
:1022500080B2E06000203188E26A22F00F02114370
:10226000E16270BD010000000200000004000000F7
:1022700006000000080000000A0000000C0000003A
:10228000100000002000000040000000800000005E
:10229000000100002DE9F0418CB040F20044C4F28E
:1022A0000004E06D0DF11C0820F00F300130E065F6
:1022B00040461421FEF7BDF841F24C00C4F2020082
:1022C000C16801AE41F00201C160C168022701F09E
:1022D0000201019101990168002541F001010160AD
:1022E0000068314600F00100019001981020019033
:1022F0004FF090400297CDE90355CDE90557FFF720
:10230000B7FC4020CDE901074FF090403146CDE9C0
:102310000355CDE90557FFF7ABFC4FF6FF70CDE94C
:10232000090520464146ADF81C500895FFF7A6FE6A
:1023300020684FF6F87120F080002060A068CFF68A
:10234000FE7108400130A060A069012161F3010025
:10235000A061A06920F00C00A061A06920F0F0004D
:10236000A061206A20F00A002062A06961F30920C0
:10237000A061A0694FF68F7120F44060A061A06950
:10238000CFF6FF5120F47040A061206A20F0A00039
:102390002062606808406060A06820F08000A06053
:1023A0000CB0BDE8F0810000FEE70000FEE77047DA
:1023B0004FF09040016841F440710160016841F4C0
:1023C00040710160016841F440510160016841F4CD
:1023D0004051016040F20800C2F20000016840680C
:1023E00088622820C4F600004FF48061016040F24A
:1023F0000040C4F20000016821F0010101600168A1
:1024000021F00101016041F25800C4F202000168AC
:1024100021F002010160016821F0020101607047B2
:1024200041F20C01C4F2020151F8040C00F00C025C
:1024300042F200400C2AC0F2F40007D0082A18BF6C
:10244000704741F20020C0F27A0070470A680346E4
:1024500002F00302032A04BF41F20023C0F27A0310
:10246000022A0A6808BF0346C2F306200A68096800
:10247000C2F3031258430132B0FBF2F0C1F34161E1
:10248000022202EB4101B0FBF1F0704741F6C0605F
:10249000C2F20000008840F6E4410009484340F2DF
:1024A0000111C0F21001A0FB0112801A02EB5000D2
:1024B00048F67951C00AC0F20101484344F6D351AD
:1024C000C1F26201A0FB0101880970475820C4F2E3
:1024D00002000168FC2221F00101016041F65C71FB
:1024E000C2F20001C160416862F30F01416044F231
:1024F0000841C4F2000100BF51E8002F42F0400241
:1025000041E80023002BF7D1016841F0010101608F
:102510007047704710B540F20101C2F2000109781E
:1025200001290AD10446FFF75AFA002818BF10BD46
:1025300040F20000C2F20000047010BD10B5044665
:10254000FFF74DFA00B110BD40F20100C2F20000E9
:10255000047010BD10B51824C4F600044FF4805068
:1025600020604FF4006020614020C4F80004202067
:10257000C4F8100440F20400C2F20000017819B35C
:102580000178012926D1FFF713FF44F20040C4F27D
:102590000000016821F001010160016821F00101E2
:1025A00001605820C4F20200016821F001010160BD
:1025B000416921F00101416141F6BC60C2F20000B5
:1025C00000680021016010BDFDF7C9FFBDE81040A3
:1025D000FEF733B9017802292CD1FDF7C0FF44F290
:1025E0000040C4F20000016821F0010101600168AF
:1025F00021F0010101605820C4F20200016821F0BD
:1026000001010160416921F0010141618020C4F8AC
:1026100010040220206142F25800C2F20000FC21A6
:10262000FDF707FF41F65C70C2F20000FC21FDF7E8
:1026300000FF10BD0178032902D1FFF7B9FEC5E7FD
:102640000078042818BF10BDC0E7000010B582B0A4
:1026500042F20000C4F202000168042262F30301A6
:10266000016000BF016801F00F010429FAD147F2AF
:102670000001C4F200010A68012341F2000063F383
:102680004A22C4F202000A60016841F4803101600C
:1026900001688903FCD5C16848F20C02CFF6FF122D
:1026A000114042F203421143C160C16841F08071A0
:1026B000C160016841F08071016000BF016889015B
:1026C000FCD58168082241F003018160816862F3D2
:1026D00007118160816801F00C010C29FAD15521A4
:1026E0000191019911B101990139F9E7816844F229
:1026F000004421F0F00181608168C0F6950421F466
:10270000E0618160816821F4605181602046FFF7BB
:102710001EFB204602B0BDE81040FFF7A9BC4EF6F4
:102720008850CEF20000016841F4700101607047EA
:10273000F0B581B041F21040C4F200006FF0010129
:10274000016040F20400C2F200000078042800F2A8
:10275000EC82DFE810F005005F00EA028D00D9008E
:1027600040F20107C2F20007387818250028C4F6A5
:10277000000500F032813878012840F0468240F2AE
:10278000B800C2F20000406844F2CC1301BA40F233
:102790008C00C2F2000001600168C0F600038A0FDD
:1027A0009A5CC1F3875672409A5CC1F387367240D7
:1027B0009A5CC1F387115140595C026881F0FF01B6
:1027C00002F03F02B2EB910F40F0098240F20201A9
:1027D000C2F2000100220A7040F28002C2F200023E
:1027E0000168136803F07F4343EA11211160116807
:1027F000136863F3170101F180711160006800F044
:10280000C000C02840F0FB814FF4006028604FF406
:102810008050F9E15C20C4F2020000681824000432
:10282000C4F6000400F008814020C4F80004202011
:10283000C4F8100441F6C260C2F200000178013110
:1028400001700078FF2808D140F21000C2F20000A9
:102850000178B1FA81F14909017040F21900C2F220
:1028600000000078012840F02381FEF775FE9BE10F
:1028700040F2C000C2F20000416844F2CC170ABA2C
:1028800040F29001C2F200010A600A68C0F6000737
:10289000930FFB5CC2F387567340FB5CC2F3873631
:1028A0007340FB5CC2F387125A40BA5C0B6882F03B
:1028B000FF0203F03F031824B3EB920FC4F60004A9
:1028C0006ED140F20302C2F200020023137040F204
:1028D0008403C2F200030A681F6807F07F4747EAD3
:1028E00012221A601A681F6867F3170202F18072D9
:1028F0001A60096801F0C001C02940F0DC80202185
:10290000C4F800144021DAE040F2C000C2F2000036
:10291000416844F2CC170ABA40F29001C2F20001B9
:102920000A600A68C0F60007930FFB5CC2F3875683
:102930007340FB5CC2F387367340FB5CC2F38712C3
:102940005A40BA5C0B6882F0FF0203F03F03B3EB1E
:10295000920F32D140F20302C2F200020023137040
:1029600040F28403C2F200030A681F6807F07F4741
:1029700047EA12221A601A681F6867F3170202F109
:1029800080721A60096801F0C001C02940F0AA8075
:102990001821C4F600012022C1F800244022A8E03A
:1029A0004021C4F800142021C4F8101440F203019F
:1029B000C2F2000101220A7083E01821C4F600016E
:1029C0004022C1F800242022C1F8102440F2030163
:1029D000C2F2000101220A708DE040F2B800C2F29A
:1029E0000000006800BA00F44001B1F5800F40F02B
:1029F000988040F20201C2F2000100220A704FF4F6
:102A0000006129604FF4805140F280022961C2F2D6
:102A100000024FF680711368C0F2FF0101EA8000E6
:102A200003F07F41084410601068116861F31700DB
:102A300000F18070106080E041F6BC65C2F20005D4
:102A4000286844F2CC12C0F30161C0F60002515C68
:102A5000C0F307435940515CC0F307235940515C10
:102A6000C3B25940515C820E81F0FF01B2EB910F6D
:102A70006FD140F20301C2F2000100220A7040F25D
:102A80008401C2F200010A68C0F3D21002F07F4252
:102A90001044086008680A6862F3170000F180704B
:102AA00008602020C4F800044020C4F810045CE052
:102AB000FEF78CFD78E04021C4F800142021C4F812
:102AC000101440F20001C2F20001097801296BD113
:102AD0000068C0F30060FEF7EFFB01281ED1FEF78F
:102AE0006AF861E01821C4F600014022C1F8002410
:102AF0002022C1F8102440F20001C2F2000109783E
:102B0000012940F012810068C0F30060FEF7D4FB99
:102B1000012840F00881FEF74EF806E1FEF785F83F
:102B200042E04FF4805028604FF40060286140F28A
:102B30000200C2F200000121017041F6B450C2F25D
:102B400000000168002957D000210160FDF7F5FF62
:102B50005BE04020C4F800042020C4F8100440F2D8
:102B60000300C2F200000121017040F21806C2F217
:102B700000063078FEF7A0FB012803D1FEF7ECFC3D
:102B8000012002E0FEF722FD002040F21901C2F20E
:102B90000001087028780021C0F30010307041F661
:102BA000C260C2F20000017040F21040C4F20000A6
:102BB0000168C90705D14FF4805020604FF40060D0
:102BC0000BE0406940F28801C2F200010A880880E7
:102BD0004FF4006020604FF480502061A5E04FF476
:102BE000805028604FF40060286140F20200C2F279
:102BF00000000121017008E00121016005E04FF4AF
:102C0000805028604FF40060286140F2C000C2F29A
:102C10000000416844F2CC160ABA40F29001C2F2B8
:102C200000010A600A68C0F60006930FF35CC2F365
:102C300087546340F35CC2F387346340F35CC2F3B0
:102C400087125A40B25C0B6882F0FF0203F03F0328
:102C5000B3EB920F21D140F20302C2F20002002333
:102C6000137040F28403C2F200030A681E6806F083
:102C70007F4646EA12221A601A681E6866F3170237
:102C800002F180721A60096801F0C001C02911D1F7
:102C90002021C5F80014402110E04021C5F800149F
:102CA0002021C5F8101440F20301C2F200010122F4
:102CB0000A7005E04021C5F800142021C5F8101461
:102CC00040F20001C2F200010978012911D0D1B906
:102CD0003878012829D140F2B800C2F2000000681B
:102CE000C0F30060FEF7E8FA01281AD1FDF7EEFE06
:102CF00019E00068C0F30060FEF7DEFA012808D191
:102D0000FDF759FF07E03878012808BFFDF715FFE8
:102D100009E0FDF78AFF3878012806D1FDF70DFF9D
:102D200003E0FDF70AFFFDF780FF01B0BDE8F040CA
:102D300000F040B841F20041C4F20001C86840F020
:102D40000100C8600A68082042F001020A6042F2ED
:102D50005411C4F20200C2F20001C16048F2240121
:102D6000C4F2000142F254228160C2F20002043136
:102D70000262C16141684FF4807262F30F014160E9
:102D800048F20801C4F2000151E8002F42F040026D
:102D900041E80023002BF7D151E8002F42F08002D8
:102DA00041E80023002BF7D1016841F001010160E7
:102DB000704700002DE9F04F83B0FEF710FE41F69A
:102DC000B9580428C2F2000816D141F6C360C2F215
:102DD000000001780131017001780E290CD1002129
:102DE000017041F6B850C2F20000032101700920C1
:102DF00088F80000FDF77CFFFEF7F1FD032807D1FE
:102E000041F6BA50C2F2000000F0D8FEFDF770FFA4
:102E100098F80000092800F26383DFE810F00A0048
:102E2000230061035700AC01FC015E00D90053018F
:102E300084020C20C4F20200006881B241F6C46032
:102E4000C2F200000068C1F58071814240F08382C7
:102E500041F64D70C2F200000078002800F0438374
:102E600004203EE341F6C869C2F2000948468521C4
:102E7000FDF7DFFA41F65870C2F200000078002832
:102E800000F0828241F6C46741F6547AC2F200072C
:102E9000C2F2000A3C68DAF8000042F254152044FD
:102EA0000138C0B2C2F20005285CDAF8001001391E
:102EB0000A0600F0CC82CAB200212346DEB2AE5D23
:102EC000013A314403F10103F8D1C1E241F6B850AF
:102ED000C2F200000121017082E141F2A871C2F248
:102EE0000001B1F80004002800F0FA8240F28400EA
:102EF000C2F20000006840F2880202900290C2F222
:102F000000021288000EADF80420ADF8042091F8FC
:102F10000224824200F0E78281F8020491F804045E
:102F2000029A41F8202091F80404013081F8040449
:102F300041F6B030C2F2000090F80322BDF8043030
:102F400020F8123090F80322013280F8032291F821
:102F5000042491F80334D21AD2B2282AC0F0C382D2
:102F600091F8032491F804349A4226D041F6BA52DB
:102F7000C2F2000200270432022300BF91F803646A
:102F8000FDB251F826600437565190F80262FDB246
:102F900030F8166053FA87F7565391F803640136F8
:102FA00081F8036490F80262013680F8026291F8B9
:102FB000036491F80454AE42E0D1B1F80024013A20
:102FC000A1F80024B0F80022013AA0F800229CE108
:102FD00041F2A031C2F20001B1F80004002800F073
:102FE0007F8240F28000C2F20000026840F284005A
:102FF00002920192C2F200000068120E029002904A
:1030000091F80234934200F06E8281F8022491F824
:103010000424019B41F8223091F80424013281F804
:103020000424020E41F2A870C2F2000080F80224CB
:1030300090F80424029B40F8223090F804240132D6
:1030400080F8042491F8042491F80334D21AD2B2FF
:103050001E2AC0F0488291F8032491F804349A4261
:1030600025D041F6BA52C2F20002002704320423EE
:1030700091F80364FDB251F826600437565190F878
:103080000364FDB250F8266053FA87F7565191F861
:103090000364013681F8036490F80364013680F814
:1030A000036491F8036491F80454AE42E0D1B1F89E
:1030B0000024013AA1F80024B0F80024013AA0F855
:1030C000002422E140F20000C2F200000178002951
:1030D00000F071810078012840F0058241F2A8716A
:1030E000C2F20001B1F80004002800F0F98140F2BA
:1030F0008400C2F2000000680290029091F802245D
:10310000000E824200F0EF8181F8020491F804047D
:10311000029A41F8202091F80404013081F8040457
:1031200091F8040491F80324801AC0B23C28C0F03E
:10313000DA8191F8030491F80424904200F0E080D1
:1031400041F6BA520020C2F20002042391F803743F
:1031500052FA80F651F8277053FA80F0776091F8B0
:103160000374013781F8037491F8037491F80464CF
:10317000B742EBD1C4E041F64D77C2F2000739788F
:10318000002900F0B08141F64E79C2F2000999F8A9
:10319000002040F2C804C2F20004862312FB034060
:1031A00002FB03F6037914F806B0B0F802A0122B64
:1031B00000F29C81461DDFE813F015003902130070
:1031C00013004D0213001300130077027F028702E1
:1031D00097029E02B102BC02CC02EE021C032C0339
:1031E00009207EE1FEF7FBFB012800F07C81BBF1AA
:1031F000400F06D10AF01F0006304FF0410B86F851
:103200004100504659463246FDF75AFD002840F02D
:10321000318200F0FDBB41F2A871C2F20001B1F8A9
:103220000004002800F05C8140F28800C2F2000037
:103230000088ADF80800ADF8040040F28400C2F246
:10324000000000680290029091F80234020E93424E
:1032500000F0498141F6B030C2F2000090F803322C
:10326000BDF8047020F8137090F80332013380F831
:10327000033281F8022491F80424029B41F82230A1
:1032800091F80424013281F8042491F8042491F87F
:103290000334D21AD2B2282AC0F0258191F803242F
:1032A00091F804349A4226D041F6BA52C2F2000292
:1032B00000270432022300BF91F80364FDB251F8E5
:1032C00026600437565190F80262FDB230F816605D
:1032D00053FA87F7565391F80364013681F8036473
:1032E00090F80262013680F8026291F8036491F866
:1032F0000454AE42E0D1B0F80022013AA0F8002216
:10330000B1F800040138A1F80004B1F80004020A81
:1033100041F6BA50C2F200004270B1F80014817058
:1033200000F04CFCDFE041F6B855C2F20005287809
:103330000138052800F2D180DFE800F003A5B0CF06
:10334000CFC141F6BA500121C2F20000CEF60071A1
:1033500001600121A0E042F25412C2F20002125CAC
:1033600041F65873C2F200031A701A78081A511DF8
:1033700041F65472C2F2000211601168C0B2884274
:10338000C0F0B1800120ACE041F6B850C2F20000BC
:1033900006210170092088F8000041F6C46041F65A
:1033A0005472C2F20000C2F20002016812681144B5
:1033B000C9B2016097E041F2A031C2F20001B1F858
:1033C0000004002800F08C8040F28000C2F200006F
:1033D00000680290029091F80224000E824200F0F0
:1033E000828081F8020491F80404029A41F82020B6
:1033F00091F80404013081F8040491F8040491F870
:103400000324801AC0B23C286DD391F8030491F8CC
:10341000042490423FF474AF41F6BA520020C2F245
:103420000002042391F8037452FA80F651F82770D1
:1034300053FA80F0776091F80374013781F80374D0
:1034400091F8037491F80464B742EBD158E7002176
:103450004942C9B288420ED1DAF800002044B0F5E2
:10346000807F00F28780DAF8002041F6C8602919D1
:10347000C2F200008BE041F6B850C2F20000012118
:1034800001700320CAE041F6BA500121C2F20000E7
:10349000CEF600710160022101710BE041F6BA54D1
:1034A0000120C2F20004CDF600602060FDF7E9FBC8
:1034B0002071204600F082FB0020287013E041F6C6
:1034C000BA500121C2F20000CEF60071016006215F
:1034D000017100F073FB0020287000BF00BF00BF27
:1034E000002088F8000003B0BDE8F08FA3F1780059
:1034F0000B283FF675AEDFE810F00D00AA010C00B6
:103500000C000C000C000C000C00DA010C0225026F
:103510005E0365E641F6BA50C2F200007823C3703C
:10352000F023037041F6B0330AF10100C2F2000348
:103530000026A3F8000283F8036283F8026241F2D6
:10354000A873C2F20003A3F80004501C4EF28F329D
:103550004243520D02EBC202A0EB820083F80464E6
:1035600083F8036483F8026489F80000481E387009
:103570000520B6E7C4F58076291948463246FCF79F
:1035800013FFDAF8001009EB06008A1B2946FCF746
:103590000BFF41F64D70C2F200000678232E36D89C
:1035A00041F64F73B9F80100C2F2000393F800B07E
:1035B00040F2C80C99F8031000BAC2F2000C86253C
:1035C00099F80020000C1BFB05C30BFB05F51971D6
:1035D0005880581D09F104010CF80520FCF7E4FEA1
:1035E0000BF101004EF28F314143490D01EBC10156
:1035F000A0EB810041F64F71C2F20001087041F664
:103600004D71701CC2F200010870042006E041F602
:10361000B850C2F2000002210170092088F80000B1
:10362000DAF800002044C0B238605CE73078042843
:1036300000F2A682DFE810F0050081028902910203
:103640009B0240F20401C2F200010978002940F017
:10365000958295E2FEF7C3F901283FF444AF307834
:1036600002AA8DF8080018200121FDF729FB002887
:1036700000F02C8241F65074C2F200042078013030
:10368000C1B203292070FFF42EAFFDF7FAFA00282B
:1036900000F0178241F6B850C2F200000321017019
:1036A000092088F80000B1E140F20800C2F20000F1
:1036B00003684068986224E040F20800C2F200000B
:1036C0000368406898611CE03078012800F0DB81D5
:1036D000002840F0558240F20001C2F20001097852
:1036E000002940F0D7814BE240F21840C4F60000B8
:1036F0008023036105E040F21840C4F600008023F7
:103700000360002088F80000501C4EF28F324243C4
:10371000520D02EBC202A0EB820040E2FEF75FF91D
:10372000012800F01381504659463246FDF7C8FA89
:1037300043E13078012800F0B081002840F0208279
:1037400040F20101C2F200010978002940F0AC8189
:1037500016E241F6BA54C2F20004FC20C0F6007032
:10376000214641F8040B30465A4600F057FA2046ED
:1037700000F024FA99F800004EF28F3101304143F5
:10378000490D01EBC101A0EB8100397889F80000F7
:10379000481E3870A4E641F6BA50C2F20000102369
:1037A000C370002440F2000380F800B0A0F801408C
:1037B000C2F200031B78012B0BD140F28401C2F24C
:1037C000000109680291416000F0F8F999F80020C1
:1037D0003978501C4EF28F324243520D02EBC20236
:1037E000A0EB820089F80000481E387088F800407D
:1037F00079E63078012800F05A81002840F0C08135
:1038000040F20501C2F200010978002940F056811A
:10381000B6E141F6BA54C2F200041220E07000256D
:1038200040F2050084F800B0A4F80150C2F2000094
:103830000078012808D1FEF729FE6060204600F0DC
:10384000BDF999F80020397888F800505CE741F616
:10385000BA50C2F200007923C370F023037041F61E
:10386000B0330AF10100C2F200030026A3F80002FF
:1038700083F8036283F8026241F2A873C2F2000384
:10388000A3F80004501C4EF28F324243520D02EB5B
:10389000C202A0EB820083F8046483F8036483F817
:1038A000026489F80000481E3870062019E641F6C7
:1038B000BA50C2F200008023C370F023037041F2BB
:1038C000A0330AF10100C2F200030026A3F80004AD
:1038D00083F8046483F8036483F8026441F2A873F4
:1038E000C2F20003A3F80004501C4EF28F32424390
:1038F000520D02EBC202A0EB820083F8046483F84D
:10390000036483F8026489F80000481E38700720B9
:10391000E7E541F6BA50C2F200008123C370F023FC
:10392000037040F20000C2F200000378002B00F0A8
:1039300088800078012840F0978041F2A875C2F293
:10394000000582E0FEF74BF8012824D1FDF799F934
:1039500000283FF4C8AD41F6B850C2F20000032180
:10396000017099F80010092088F80000481C4EF2F8
:103970008F314143490D01EBC101A0EB8100397842
:1039800089F80000481E387041F65070C2F20000FD
:1039900000210170A7E541F6BA52C2F2000282206E
:1039A000D07002F804BB4FEA1A2002F8030C50460C
:1039B000594602F802ACFDF76BF948B341F6507472
:1039C000C2F2000420780130C1B203292070FFF454
:1039D0008AADFDF756F9002873D041F6B850C2F20F
:1039E00000000321017099F80010092088F80000F8
:1039F000481C4EF28F314143490D01EBC101A0EB50
:103A00008100397889F80000481E387000205BE09A
:103A100099F800104EF28F3201314A43520D02EBF9
:103A2000C202A1EB82013A7889F80010511E397068
:103A300041F650710020C2F2000188F800000870C1
:103A400051E541F2A035C2F2000505F2024005F24F
:103A5000034305F2044605F580650AF101042C8054
:103A6000002535701D700570501C4EF28F32424398
:103A7000520D02EBC202A0EB820089F80000481E42
:103A8000387008202DE540F20001C2F200010978EB
:103A9000012975D0FEF73EFD72E040F20001C2F24E
:103AA0000001097801296BD0FEF748FD68E040F27B
:103AB0000501C2F200010978012961D0FDF7DDFDA1
:103AC0005EE0002088F8000020700CE599F8000006
:103AD0004EF28F3101304143490D01EBC101A0EBA2
:103AE000810138780022431EDEB23B7041F65073EC
:103AF000C2F20003232E88F8002089F800101A7003
:103B000052D82331CAB239235A43D20A42EAC202F6
:103B1000A1EB820189F80010C9B2862201FB02F3F1
:103B200011FB02410D220A7140224A800122E25417
:103B30000522127838704A71D5E440F20401C2F2CD
:103B400000010978012919D11AE040F20401C2F2FA
:103B500000010978022911D112E040F20401C2F2F9
:103B600000010978032918BFFDF76BFD08E040F25A
:103B70000401C2F200010978042901D0FDF761FDBA
:103B800099F80010002088F80000481C4EF28F3190
:103B90004143490D01EBC101A0EB8100397889F85F
:103BA0000000481E38709EE441F6B850C2F2000092
:103BB0000221FFF790B900F0A3F8000070B51C26B1
:103BC000C4F20206014600783268FC2822F00102A5
:103BD00028BFFC20326072684FF6FF739A4302449C
:103BE00042F254250532041DC2F2000572602846D7
:103BF0002246FCF7D9FBE87829461030E87000200F
:103C0000224600BF11F8013B013A1844FAD1404264
:103C10002855306840F00100306070BD2DE9F0415A
:103C200040F218470646C4F60007202000243860FA
:103C3000402015468846C4F202043861FEF746FC6F
:103C4000E06E4FF6FF7120F00100E066206F2A461B
:103C500088432844206742F25800C2F200003146EF
:103C6000FCF7A2FB44F20840C4F2000050E8001F39
:103C700041F0800140E80012002AF7D1E06E40F0E8
:103C80000100E06644F620602168490202D4013850
:103C9000FAD100204FF48001013861602168890267
:103CA00003D40028A0F10100F8D14FF400106060A7
:103CB0004BF6C150CFF6F0702168890303D4002879
:103CC00000F10100F8D14FF4003041F65C756060FE
:103CD0004FF48020C2F20005606040462946FC2275
:103CE000FCF762FB2846FC21FCF7A3FBFEF7EEFB8A
:103CF0004020386020203861BDE8F081FEE70000F8
:103D00004EF60C50BFF34F8FCEF200000168042234
:103D100001F4E061C0F2FA5211430160BFF34F8F2A
:103D200000BFFDE78EB041F24807C4F20207B86950
:103D30004EF60C5840F00100B861B869CEF20008A8
:103D400000F001000790079838694FF6FF0140F036
:103D5000805038613869042200F08050079007983D
:103D6000D8F800000026084040F20031C0F2FA51B5
:103D70000843C8F80000D8F8000048F20004C0F377
:103D8000022080F00701042928BF11464FF0FF32BE
:103D9000033802FA01F138BF3046C94301FA00F096
:103DA000000188F8170047F20800C4F2000001681B
:103DB000C4F2000441F480410160FEF747FC0C9618
:103DC000786840F2004540F0200078607868C4F6DA
:103DD000000500F020000190019878684FF4807190
:103DE00040F00100786078684FF4806900F00100CD
:103DF0000190019878684FF4006240F0020078600A
:103E000078680DF11C0B00F00200019001984FF64C
:103E10002840CFF6FF70295045F800902A504FF403
:103E200080522A504020A8628020A86207914FF05B
:103E3000010A4FF090405946CDE908A6CDE90A663F
:103E4000FDF716FF4FF090405946CDE9079ACDE9AE
:103E500009660B96FDF70CFF4FF40060CDE9070AE9
:103E60004FF090405946CDE909660B96FDF700FFEB
:103E70004FF4805007904FF0904059464FF48059CE
:103E8000CDE908A6CDE90A66FDF7F2FE10200790FD
:103E90000220CDE9080606200C9028465946CDE9B7
:103EA0000A66FDF7E5FE2020CDE9070A28465946B7
:103EB000CDE909660B96FDF7DBFE4020CDE9070A48
:103EC00028465946CDE909660B96FDF7D1FE8020BC
:103ED000CDE9070A4EF20B4A284659464EF2001B1E
:103EE000CEF2000ACDE909660B96CEF2000BFDF783
:103EF000BFFE386801AD40F00400386038682946DC
:103F000000F0040007900798386840F0010038601E
:103F1000386800F0010007900798386840F0020008
:103F20003860386800F0020007900798D8F8000061
:103F30008AF800604FF40060CBF80000D8F8000069
:103F40008AF80160CBF80090D8F800008AF8026087
:103F50004FF40050CBF80000D8F800008AF8036056
:103F60004FF48040CBF80000D8F800008AF80460D5
:103F70004FF40040CBF80000D8F800008AF8056044
:103F80004FF48030CBF80000D8F800008AF82D609C
:103F90004FF08070CBF80400D8F800008AF82E604B
:103FA0004FF00070CBF8040038684FF0020840F082
:103FB0000800386038684FF00C0900F008000790DE
:103FC0000798386C20F440603864786940F001004C
:103FD0007861786900F0010007900798786840F0F0
:103FE00001007860786800F00100079007980420CD
:103FF00001904FF09040CDE90286CDE90466CDF8FE
:104000001890FDF735FE0820CDE901084FF09040EB
:104010002946CDE90366CDE90569FDF729FE0820AB
:10402000C4F20200D0F8F817222262F30701C0F8A8
:10403000F81701684BF6EF72CFF6FF72114001607E
:104040000168232521F440510160016841F02001FD
:104050000160016821F040010160016841F08001C8
:104060000160016821F440710160016821F4406140
:10407000016040F60401C4F202010B6865F3070316
:104080000B604169114010314161416921F4405197
:104090004161416921F020014161416921F0400104
:1040A0004161416941F080014161416921F4407100
:1040B0004161416921F44061416141F60030C0F243
:1040C000B700CDE9080607A920460796CDE90A669C
:1040D000CDE90C96FDF750FE48F20800C4F200004E
:1040E00050E8001F21F0604140E80012002AF7D19B
:1040F00050E8001F21F0606140E80012002AF7D16B
:10410000206820F000502060206840F0010020600E
:10411000E0698002FCD5E0694002F9D507AC204691
:10412000142162B6FCF785F938694FF4000140F0BC
:1041300020003861386941F2004500F0200001900C
:1041400001984EF60C50CEF20000006800208AF86C
:104150002C00CBF80410ADF81C00089041F2BF20F1
:10416000C4F20005099028462146FDF787FF28681C
:104170004FF68F7120F0800028606868CFF6FF51FD
:1041800008406860A86820F08000A860FEF7D2FDB3
:10419000FDF784FAFCF7C4FDFEE7F1EE100A4FF6D6
:1041A000FF71C0F2C03120EA010040F04070E1EE42
:1041B000100A704700000000000000000102030424
:1041C000060708090000000001020304000C18148F
:1041D000303C2824606C7874505C4844C0CCD8D4FF
:1041E000F0FCE8E4A0ACB8B4909C88848C809498EF
:1041F000BCB0A4A8ECE0F4F8DCD0C4C84C405458DF
:104200007C7064682C2034381C10040814180C00CE
:1042100024283C3074786C6044485C50D4D8CCC0BE
:10422000E4E8FCF0B4B8ACA084889C909894808CAE
:10423000A8A4B0BCF8F4E0ECC8C4D0DC5854404C9E
:104240006864707C3834202C0804101C2824303C0E
:104250001814000C4844505C7874606CE8E4F0FC7E
:10426000D8D4C0CC8884909CB8B4A0ACA4A8BCB06E
:1042700094988C80C4C8DCD0F4F8ECE064687C705E
:1042800054584C4004081C1034382C203C3024284E
:104290000C0014185C5044486C607478FCF0E4E83E
:1042A000CCC0D4D89C908488ACA0B4B8B0BCA8A42E
:1042B000808C9894D0DCC8C4E0ECF8F4707C68641E
:1042C000404C5854101C0804202C383400030605B8
:1042D0000C0F0A090B080D0E070401020043000829
:1042E0000000002020000000140200082043000805
:1042F00020000020302900003002000800000000EB
:10430000010101010401000000000048000100005B
:10431000010000000024F400010100000000000082
:04000005080001D915
:00000001FF
